{
	"contracts/mapping.sol": {
		"Mycontarct": {
			"abi": [
				{
					"inputs": [],
					"stateMutability": "nonpayable",
					"type": "constructor"
				},
				{
					"inputs": [
						{
							"internalType": "uint256",
							"name": "_id",
							"type": "uint256"
						},
						{
							"internalType": "string",
							"name": "_title",
							"type": "string"
						},
						{
							"internalType": "string",
							"name": "_author",
							"type": "string"
						}
					],
					"name": "addMybook",
					"outputs": [],
					"stateMutability": "nonpayable",
					"type": "function"
				},
				{
					"inputs": [
						{
							"internalType": "uint256",
							"name": "_id",
							"type": "uint256"
						},
						{
							"internalType": "string",
							"name": "_title",
							"type": "string"
						},
						{
							"internalType": "string",
							"name": "_author",
							"type": "string"
						}
					],
					"name": "addbook",
					"outputs": [],
					"stateMutability": "nonpayable",
					"type": "function"
				},
				{
					"inputs": [
						{
							"internalType": "uint256",
							"name": "",
							"type": "uint256"
						}
					],
					"name": "books",
					"outputs": [
						{
							"internalType": "string",
							"name": "title",
							"type": "string"
						},
						{
							"internalType": "string",
							"name": "author",
							"type": "string"
						}
					],
					"stateMutability": "view",
					"type": "function"
				},
				{
					"inputs": [
						{
							"internalType": "address",
							"name": "",
							"type": "address"
						},
						{
							"internalType": "uint256",
							"name": "",
							"type": "uint256"
						}
					],
					"name": "myBooks",
					"outputs": [
						{
							"internalType": "string",
							"name": "title",
							"type": "string"
						},
						{
							"internalType": "string",
							"name": "author",
							"type": "string"
						}
					],
					"stateMutability": "view",
					"type": "function"
				},
				{
					"inputs": [
						{
							"internalType": "uint256",
							"name": "",
							"type": "uint256"
						}
					],
					"name": "name",
					"outputs": [
						{
							"internalType": "string",
							"name": "",
							"type": "string"
						}
					],
					"stateMutability": "view",
					"type": "function"
				}
			],
			"devdoc": {
				"kind": "dev",
				"methods": {},
				"version": 1
			},
			"evm": {
				"assembly": "    /* \"contracts/mapping.sol\":65:930  contract Mycontarct {... */\n  mstore(0x40, 0x80)\n    /* \"contracts/mapping.sol\":322:452  constructor() {... */\n  callvalue\n  dup1\n  iszero\n  tag_1\n  jumpi\n  0x00\n  dup1\n  revert\ntag_1:\n  pop\n    /* \"contracts/mapping.sol\":351:369  name[1]= \"swastik\" */\n  mload(0x40)\n  dup1\n  0x40\n  add\n  0x40\n  mstore\n  dup1\n  0x07\n  dup2\n  mstore\n  0x20\n  add\n  0x7377617374696b00000000000000000000000000000000000000000000000000\n  dup2\n  mstore\n  pop\n    /* \"contracts/mapping.sol\":351:355  name */\n  0x00\n    /* \"contracts/mapping.sol\":351:358  name[1] */\n  dup1\n    /* \"contracts/mapping.sol\":356:357  1 */\n  0x01\n    /* \"contracts/mapping.sol\":351:358  name[1] */\n  dup2\n  mstore\n  0x20\n  add\n  swap1\n  dup2\n  mstore\n  0x20\n  add\n  0x00\n  keccak256\n    /* \"contracts/mapping.sol\":351:369  name[1]= \"swastik\" */\n  swap1\n  dup2\n  tag_4\n  swap2\n  swap1\n  tag_5\n  jump\t// in\ntag_4:\n  pop\n    /* \"contracts/mapping.sol\":384:403  name[2]= \"subhamay\" */\n  mload(0x40)\n  dup1\n  0x40\n  add\n  0x40\n  mstore\n  dup1\n  0x08\n  dup2\n  mstore\n  0x20\n  add\n  0x73756268616d6179000000000000000000000000000000000000000000000000\n  dup2\n  mstore\n  pop\n    /* \"contracts/mapping.sol\":384:388  name */\n  0x00\n    /* \"contracts/mapping.sol\":384:391  name[2] */\n  dup1\n    /* \"contracts/mapping.sol\":389:390  2 */\n  0x02\n    /* \"contracts/mapping.sol\":384:391  name[2] */\n  dup2\n  mstore\n  0x20\n  add\n  swap1\n  dup2\n  mstore\n  0x20\n  add\n  0x00\n  keccak256\n    /* \"contracts/mapping.sol\":384:403  name[2]= \"subhamay\" */\n  swap1\n  dup2\n  tag_6\n  swap2\n  swap1\n  tag_5\n  jump\t// in\ntag_6:\n  pop\n    /* \"contracts/mapping.sol\":418:440  name[3] =\" subhraneel\" */\n  mload(0x40)\n  dup1\n  0x40\n  add\n  0x40\n  mstore\n  dup1\n  0x0b\n  dup2\n  mstore\n  0x20\n  add\n  0x207375626872616e65656c000000000000000000000000000000000000000000\n  dup2\n  mstore\n  pop\n    /* \"contracts/mapping.sol\":418:422  name */\n  0x00\n    /* \"contracts/mapping.sol\":418:425  name[3] */\n  dup1\n    /* \"contracts/mapping.sol\":423:424  3 */\n  0x03\n    /* \"contracts/mapping.sol\":418:425  name[3] */\n  dup2\n  mstore\n  0x20\n  add\n  swap1\n  dup2\n  mstore\n  0x20\n  add\n  0x00\n  keccak256\n    /* \"contracts/mapping.sol\":418:440  name[3] =\" subhraneel\" */\n  swap1\n  dup2\n  tag_7\n  swap2\n  swap1\n  tag_5\n  jump\t// in\ntag_7:\n  pop\n    /* \"contracts/mapping.sol\":65:930  contract Mycontarct {... */\n  jump(tag_8)\n    /* \"#utility.yul\":7:106   */\ntag_9:\n    /* \"#utility.yul\":59:65   */\n  0x00\n    /* \"#utility.yul\":93:98   */\n  dup2\n    /* \"#utility.yul\":87:99   */\n  mload\n    /* \"#utility.yul\":77:99   */\n  swap1\n  pop\n    /* \"#utility.yul\":7:106   */\n  swap2\n  swap1\n  pop\n  jump\t// out\n    /* \"#utility.yul\":112:292   */\ntag_10:\n    /* \"#utility.yul\":160:237   */\n  0x4e487b7100000000000000000000000000000000000000000000000000000000\n    /* \"#utility.yul\":157:158   */\n  0x00\n    /* \"#utility.yul\":150:238   */\n  mstore\n    /* \"#utility.yul\":257:261   */\n  0x41\n    /* \"#utility.yul\":254:255   */\n  0x04\n    /* \"#utility.yul\":247:262   */\n  mstore\n    /* \"#utility.yul\":281:285   */\n  0x24\n    /* \"#utility.yul\":278:279   */\n  0x00\n    /* \"#utility.yul\":271:286   */\n  revert\n    /* \"#utility.yul\":298:478   */\ntag_11:\n    /* \"#utility.yul\":346:423   */\n  0x4e487b7100000000000000000000000000000000000000000000000000000000\n    /* \"#utility.yul\":343:344   */\n  0x00\n    /* \"#utility.yul\":336:424   */\n  mstore\n    /* \"#utility.yul\":443:447   */\n  0x22\n    /* \"#utility.yul\":440:441   */\n  0x04\n    /* \"#utility.yul\":433:448   */\n  mstore\n    /* \"#utility.yul\":467:471   */\n  0x24\n    /* \"#utility.yul\":464:465   */\n  0x00\n    /* \"#utility.yul\":457:472   */\n  revert\n    /* \"#utility.yul\":484:804   */\ntag_12:\n    /* \"#utility.yul\":528:534   */\n  0x00\n    /* \"#utility.yul\":565:566   */\n  0x02\n    /* \"#utility.yul\":559:563   */\n  dup3\n    /* \"#utility.yul\":555:567   */\n  div\n    /* \"#utility.yul\":545:567   */\n  swap1\n  pop\n    /* \"#utility.yul\":612:613   */\n  0x01\n    /* \"#utility.yul\":606:610   */\n  dup3\n    /* \"#utility.yul\":602:614   */\n  and\n    /* \"#utility.yul\":633:651   */\n  dup1\n    /* \"#utility.yul\":623:704   */\n  tag_34\n  jumpi\n    /* \"#utility.yul\":689:693   */\n  0x7f\n    /* \"#utility.yul\":681:687   */\n  dup3\n    /* \"#utility.yul\":677:694   */\n  and\n    /* \"#utility.yul\":667:694   */\n  swap2\n  pop\n    /* \"#utility.yul\":623:704   */\ntag_34:\n    /* \"#utility.yul\":751:753   */\n  0x20\n    /* \"#utility.yul\":743:749   */\n  dup3\n    /* \"#utility.yul\":740:754   */\n  lt\n    /* \"#utility.yul\":720:738   */\n  dup2\n    /* \"#utility.yul\":717:755   */\n  sub\n    /* \"#utility.yul\":714:798   */\n  tag_35\n  jumpi\n    /* \"#utility.yul\":770:788   */\n  tag_36\n  tag_11\n  jump\t// in\ntag_36:\n    /* \"#utility.yul\":714:798   */\ntag_35:\n    /* \"#utility.yul\":535:804   */\n  pop\n    /* \"#utility.yul\":484:804   */\n  swap2\n  swap1\n  pop\n  jump\t// out\n    /* \"#utility.yul\":810:951   */\ntag_13:\n    /* \"#utility.yul\":859:863   */\n  0x00\n    /* \"#utility.yul\":882:885   */\n  dup2\n    /* \"#utility.yul\":874:885   */\n  swap1\n  pop\n    /* \"#utility.yul\":905:908   */\n  dup2\n    /* \"#utility.yul\":902:903   */\n  0x00\n    /* \"#utility.yul\":895:909   */\n  mstore\n    /* \"#utility.yul\":939:943   */\n  0x20\n    /* \"#utility.yul\":936:937   */\n  0x00\n    /* \"#utility.yul\":926:944   */\n  keccak256\n    /* \"#utility.yul\":918:944   */\n  swap1\n  pop\n    /* \"#utility.yul\":810:951   */\n  swap2\n  swap1\n  pop\n  jump\t// out\n    /* \"#utility.yul\":957:1050   */\ntag_14:\n    /* \"#utility.yul\":994:1000   */\n  0x00\n    /* \"#utility.yul\":1041:1043   */\n  0x20\n    /* \"#utility.yul\":1036:1038   */\n  0x1f\n    /* \"#utility.yul\":1029:1034   */\n  dup4\n    /* \"#utility.yul\":1025:1039   */\n  add\n    /* \"#utility.yul\":1021:1044   */\n  div\n    /* \"#utility.yul\":1011:1044   */\n  swap1\n  pop\n    /* \"#utility.yul\":957:1050   */\n  swap2\n  swap1\n  pop\n  jump\t// out\n    /* \"#utility.yul\":1056:1163   */\ntag_15:\n    /* \"#utility.yul\":1100:1108   */\n  0x00\n    /* \"#utility.yul\":1150:1155   */\n  dup3\n    /* \"#utility.yul\":1144:1148   */\n  dup3\n    /* \"#utility.yul\":1140:1156   */\n  shl\n    /* \"#utility.yul\":1119:1156   */\n  swap1\n  pop\n    /* \"#utility.yul\":1056:1163   */\n  swap3\n  swap2\n  pop\n  pop\n  jump\t// out\n    /* \"#utility.yul\":1169:1562   */\ntag_16:\n    /* \"#utility.yul\":1238:1244   */\n  0x00\n    /* \"#utility.yul\":1288:1289   */\n  0x08\n    /* \"#utility.yul\":1276:1286   */\n  dup4\n    /* \"#utility.yul\":1272:1290   */\n  mul\n    /* \"#utility.yul\":1311:1408   */\n  tag_41\n    /* \"#utility.yul\":1341:1407   */\n  0xffffffffffffffffffffffffffffffffffffffffffffffffffffffffffffffff\n    /* \"#utility.yul\":1330:1339   */\n  dup3\n    /* \"#utility.yul\":1311:1408   */\n  tag_15\n  jump\t// in\ntag_41:\n    /* \"#utility.yul\":1429:1468   */\n  tag_42\n    /* \"#utility.yul\":1459:1467   */\n  dup7\n    /* \"#utility.yul\":1448:1457   */\n  dup4\n    /* \"#utility.yul\":1429:1468   */\n  tag_15\n  jump\t// in\ntag_42:\n    /* \"#utility.yul\":1417:1468   */\n  swap6\n  pop\n    /* \"#utility.yul\":1501:1505   */\n  dup1\n    /* \"#utility.yul\":1497:1506   */\n  not\n    /* \"#utility.yul\":1490:1495   */\n  dup5\n    /* \"#utility.yul\":1486:1507   */\n  and\n    /* \"#utility.yul\":1477:1507   */\n  swap4\n  pop\n    /* \"#utility.yul\":1550:1554   */\n  dup1\n    /* \"#utility.yul\":1540:1548   */\n  dup7\n    /* \"#utility.yul\":1536:1555   */\n  and\n    /* \"#utility.yul\":1529:1534   */\n  dup5\n    /* \"#utility.yul\":1526:1556   */\n  or\n    /* \"#utility.yul\":1516:1556   */\n  swap3\n  pop\n    /* \"#utility.yul\":1245:1562   */\n  pop\n  pop\n    /* \"#utility.yul\":1169:1562   */\n  swap4\n  swap3\n  pop\n  pop\n  pop\n  jump\t// out\n    /* \"#utility.yul\":1568:1645   */\ntag_17:\n    /* \"#utility.yul\":1605:1612   */\n  0x00\n    /* \"#utility.yul\":1634:1639   */\n  dup2\n    /* \"#utility.yul\":1623:1639   */\n  swap1\n  pop\n    /* \"#utility.yul\":1568:1645   */\n  swap2\n  swap1\n  pop\n  jump\t// out\n    /* \"#utility.yul\":1651:1711   */\ntag_18:\n    /* \"#utility.yul\":1679:1682   */\n  0x00\n    /* \"#utility.yul\":1700:1705   */\n  dup2\n    /* \"#utility.yul\":1693:1705   */\n  swap1\n  pop\n    /* \"#utility.yul\":1651:1711   */\n  swap2\n  swap1\n  pop\n  jump\t// out\n    /* \"#utility.yul\":1717:1859   */\ntag_19:\n    /* \"#utility.yul\":1767:1776   */\n  0x00\n    /* \"#utility.yul\":1800:1853   */\n  tag_46\n    /* \"#utility.yul\":1818:1852   */\n  tag_47\n    /* \"#utility.yul\":1827:1851   */\n  tag_48\n    /* \"#utility.yul\":1845:1850   */\n  dup5\n    /* \"#utility.yul\":1827:1851   */\n  tag_17\n  jump\t// in\ntag_48:\n    /* \"#utility.yul\":1818:1852   */\n  tag_18\n  jump\t// in\ntag_47:\n    /* \"#utility.yul\":1800:1853   */\n  tag_17\n  jump\t// in\ntag_46:\n    /* \"#utility.yul\":1787:1853   */\n  swap1\n  pop\n    /* \"#utility.yul\":1717:1859   */\n  swap2\n  swap1\n  pop\n  jump\t// out\n    /* \"#utility.yul\":1865:1940   */\ntag_20:\n    /* \"#utility.yul\":1908:1911   */\n  0x00\n    /* \"#utility.yul\":1929:1934   */\n  dup2\n    /* \"#utility.yul\":1922:1934   */\n  swap1\n  pop\n    /* \"#utility.yul\":1865:1940   */\n  swap2\n  swap1\n  pop\n  jump\t// out\n    /* \"#utility.yul\":1946:2215   */\ntag_21:\n    /* \"#utility.yul\":2056:2095   */\n  tag_51\n    /* \"#utility.yul\":2087:2094   */\n  dup4\n    /* \"#utility.yul\":2056:2095   */\n  tag_19\n  jump\t// in\ntag_51:\n    /* \"#utility.yul\":2117:2208   */\n  tag_52\n    /* \"#utility.yul\":2166:2207   */\n  tag_53\n    /* \"#utility.yul\":2190:2206   */\n  dup3\n    /* \"#utility.yul\":2166:2207   */\n  tag_20\n  jump\t// in\ntag_53:\n    /* \"#utility.yul\":2158:2164   */\n  dup5\n    /* \"#utility.yul\":2151:2155   */\n  dup5\n    /* \"#utility.yul\":2145:2156   */\n  sload\n    /* \"#utility.yul\":2117:2208   */\n  tag_16\n  jump\t// in\ntag_52:\n    /* \"#utility.yul\":2111:2115   */\n  dup3\n    /* \"#utility.yul\":2104:2209   */\n  sstore\n    /* \"#utility.yul\":2022:2215   */\n  pop\n    /* \"#utility.yul\":1946:2215   */\n  pop\n  pop\n  pop\n  jump\t// out\n    /* \"#utility.yul\":2221:2294   */\ntag_22:\n    /* \"#utility.yul\":2266:2269   */\n  0x00\n    /* \"#utility.yul\":2221:2294   */\n  swap1\n  jump\t// out\n    /* \"#utility.yul\":2300:2489   */\ntag_23:\n    /* \"#utility.yul\":2377:2409   */\n  tag_56\n  tag_22\n  jump\t// in\ntag_56:\n    /* \"#utility.yul\":2418:2483   */\n  tag_57\n    /* \"#utility.yul\":2476:2482   */\n  dup2\n    /* \"#utility.yul\":2468:2474   */\n  dup5\n    /* \"#utility.yul\":2462:2466   */\n  dup5\n    /* \"#utility.yul\":2418:2483   */\n  tag_21\n  jump\t// in\ntag_57:\n    /* \"#utility.yul\":2353:2489   */\n  pop\n    /* \"#utility.yul\":2300:2489   */\n  pop\n  pop\n  jump\t// out\n    /* \"#utility.yul\":2495:2681   */\ntag_24:\n    /* \"#utility.yul\":2555:2675   */\ntag_59:\n    /* \"#utility.yul\":2572:2575   */\n  dup2\n    /* \"#utility.yul\":2565:2570   */\n  dup2\n    /* \"#utility.yul\":2562:2576   */\n  lt\n    /* \"#utility.yul\":2555:2675   */\n  iszero\n  tag_61\n  jumpi\n    /* \"#utility.yul\":2626:2665   */\n  tag_62\n    /* \"#utility.yul\":2663:2664   */\n  0x00\n    /* \"#utility.yul\":2656:2661   */\n  dup3\n    /* \"#utility.yul\":2626:2665   */\n  tag_23\n  jump\t// in\ntag_62:\n    /* \"#utility.yul\":2599:2600   */\n  0x01\n    /* \"#utility.yul\":2592:2597   */\n  dup2\n    /* \"#utility.yul\":2588:2601   */\n  add\n    /* \"#utility.yul\":2579:2601   */\n  swap1\n  pop\n    /* \"#utility.yul\":2555:2675   */\n  jump(tag_59)\ntag_61:\n    /* \"#utility.yul\":2495:2681   */\n  pop\n  pop\n  jump\t// out\n    /* \"#utility.yul\":2687:3230   */\ntag_25:\n    /* \"#utility.yul\":2788:2790   */\n  0x1f\n    /* \"#utility.yul\":2783:2786   */\n  dup3\n    /* \"#utility.yul\":2780:2791   */\n  gt\n    /* \"#utility.yul\":2777:3223   */\n  iszero\n  tag_64\n  jumpi\n    /* \"#utility.yul\":2822:2860   */\n  tag_65\n    /* \"#utility.yul\":2854:2859   */\n  dup2\n    /* \"#utility.yul\":2822:2860   */\n  tag_13\n  jump\t// in\ntag_65:\n    /* \"#utility.yul\":2906:2935   */\n  tag_66\n    /* \"#utility.yul\":2924:2934   */\n  dup5\n    /* \"#utility.yul\":2906:2935   */\n  tag_14\n  jump\t// in\ntag_66:\n    /* \"#utility.yul\":2896:2904   */\n  dup2\n    /* \"#utility.yul\":2892:2936   */\n  add\n    /* \"#utility.yul\":3089:3091   */\n  0x20\n    /* \"#utility.yul\":3077:3087   */\n  dup6\n    /* \"#utility.yul\":3074:3092   */\n  lt\n    /* \"#utility.yul\":3071:3120   */\n  iszero\n  tag_67\n  jumpi\n    /* \"#utility.yul\":3110:3118   */\n  dup2\n    /* \"#utility.yul\":3095:3118   */\n  swap1\n  pop\n    /* \"#utility.yul\":3071:3120   */\ntag_67:\n    /* \"#utility.yul\":3133:3213   */\n  tag_68\n    /* \"#utility.yul\":3189:3211   */\n  tag_69\n    /* \"#utility.yul\":3207:3210   */\n  dup6\n    /* \"#utility.yul\":3189:3211   */\n  tag_14\n  jump\t// in\ntag_69:\n    /* \"#utility.yul\":3179:3187   */\n  dup4\n    /* \"#utility.yul\":3175:3212   */\n  add\n    /* \"#utility.yul\":3162:3173   */\n  dup3\n    /* \"#utility.yul\":3133:3213   */\n  tag_24\n  jump\t// in\ntag_68:\n    /* \"#utility.yul\":2792:3223   */\n  pop\n  pop\n    /* \"#utility.yul\":2777:3223   */\ntag_64:\n    /* \"#utility.yul\":2687:3230   */\n  pop\n  pop\n  pop\n  jump\t// out\n    /* \"#utility.yul\":3236:3353   */\ntag_26:\n    /* \"#utility.yul\":3290:3298   */\n  0x00\n    /* \"#utility.yul\":3340:3345   */\n  dup3\n    /* \"#utility.yul\":3334:3338   */\n  dup3\n    /* \"#utility.yul\":3330:3346   */\n  shr\n    /* \"#utility.yul\":3309:3346   */\n  swap1\n  pop\n    /* \"#utility.yul\":3236:3353   */\n  swap3\n  swap2\n  pop\n  pop\n  jump\t// out\n    /* \"#utility.yul\":3359:3528   */\ntag_27:\n    /* \"#utility.yul\":3403:3409   */\n  0x00\n    /* \"#utility.yul\":3436:3487   */\n  tag_72\n    /* \"#utility.yul\":3484:3485   */\n  0x00\n    /* \"#utility.yul\":3480:3486   */\n  not\n    /* \"#utility.yul\":3472:3477   */\n  dup5\n    /* \"#utility.yul\":3469:3470   */\n  0x08\n    /* \"#utility.yul\":3465:3478   */\n  mul\n    /* \"#utility.yul\":3436:3487   */\n  tag_26\n  jump\t// in\ntag_72:\n    /* \"#utility.yul\":3432:3488   */\n  not\n    /* \"#utility.yul\":3517:3521   */\n  dup1\n    /* \"#utility.yul\":3511:3515   */\n  dup4\n    /* \"#utility.yul\":3507:3522   */\n  and\n    /* \"#utility.yul\":3497:3522   */\n  swap2\n  pop\n    /* \"#utility.yul\":3410:3528   */\n  pop\n    /* \"#utility.yul\":3359:3528   */\n  swap3\n  swap2\n  pop\n  pop\n  jump\t// out\n    /* \"#utility.yul\":3533:3828   */\ntag_28:\n    /* \"#utility.yul\":3609:3613   */\n  0x00\n    /* \"#utility.yul\":3755:3784   */\n  tag_74\n    /* \"#utility.yul\":3780:3783   */\n  dup4\n    /* \"#utility.yul\":3774:3778   */\n  dup4\n    /* \"#utility.yul\":3755:3784   */\n  tag_27\n  jump\t// in\ntag_74:\n    /* \"#utility.yul\":3747:3784   */\n  swap2\n  pop\n    /* \"#utility.yul\":3817:3820   */\n  dup3\n    /* \"#utility.yul\":3814:3815   */\n  0x02\n    /* \"#utility.yul\":3810:3821   */\n  mul\n    /* \"#utility.yul\":3804:3808   */\n  dup3\n    /* \"#utility.yul\":3801:3822   */\n  or\n    /* \"#utility.yul\":3793:3822   */\n  swap1\n  pop\n    /* \"#utility.yul\":3533:3828   */\n  swap3\n  swap2\n  pop\n  pop\n  jump\t// out\n    /* \"#utility.yul\":3833:5228   */\ntag_5:\n    /* \"#utility.yul\":3950:3987   */\n  tag_76\n    /* \"#utility.yul\":3983:3986   */\n  dup3\n    /* \"#utility.yul\":3950:3987   */\n  tag_9\n  jump\t// in\ntag_76:\n    /* \"#utility.yul\":4052:4070   */\n  0xffffffffffffffff\n    /* \"#utility.yul\":4044:4050   */\n  dup2\n    /* \"#utility.yul\":4041:4071   */\n  gt\n    /* \"#utility.yul\":4038:4094   */\n  iszero\n  tag_77\n  jumpi\n    /* \"#utility.yul\":4074:4092   */\n  tag_78\n  tag_10\n  jump\t// in\ntag_78:\n    /* \"#utility.yul\":4038:4094   */\ntag_77:\n    /* \"#utility.yul\":4118:4156   */\n  tag_79\n    /* \"#utility.yul\":4150:4154   */\n  dup3\n    /* \"#utility.yul\":4144:4155   */\n  sload\n    /* \"#utility.yul\":4118:4156   */\n  tag_12\n  jump\t// in\ntag_79:\n    /* \"#utility.yul\":4203:4270   */\n  tag_80\n    /* \"#utility.yul\":4263:4269   */\n  dup3\n    /* \"#utility.yul\":4255:4261   */\n  dup3\n    /* \"#utility.yul\":4249:4253   */\n  dup6\n    /* \"#utility.yul\":4203:4270   */\n  tag_25\n  jump\t// in\ntag_80:\n    /* \"#utility.yul\":4297:4298   */\n  0x00\n    /* \"#utility.yul\":4321:4325   */\n  0x20\n    /* \"#utility.yul\":4308:4325   */\n  swap1\n  pop\n    /* \"#utility.yul\":4353:4355   */\n  0x1f\n    /* \"#utility.yul\":4345:4351   */\n  dup4\n    /* \"#utility.yul\":4342:4356   */\n  gt\n    /* \"#utility.yul\":4370:4371   */\n  0x01\n    /* \"#utility.yul\":4365:4983   */\n  dup2\n  eq\n  tag_82\n  jumpi\n    /* \"#utility.yul\":5027:5028   */\n  0x00\n    /* \"#utility.yul\":5044:5050   */\n  dup5\n    /* \"#utility.yul\":5041:5118   */\n  iszero\n  tag_83\n  jumpi\n    /* \"#utility.yul\":5093:5102   */\n  dup3\n    /* \"#utility.yul\":5088:5091   */\n  dup8\n    /* \"#utility.yul\":5084:5103   */\n  add\n    /* \"#utility.yul\":5078:5104   */\n  mload\n    /* \"#utility.yul\":5069:5104   */\n  swap1\n  pop\n    /* \"#utility.yul\":5041:5118   */\ntag_83:\n    /* \"#utility.yul\":5144:5211   */\n  tag_84\n    /* \"#utility.yul\":5204:5210   */\n  dup6\n    /* \"#utility.yul\":5197:5202   */\n  dup3\n    /* \"#utility.yul\":5144:5211   */\n  tag_28\n  jump\t// in\ntag_84:\n    /* \"#utility.yul\":5138:5142   */\n  dup7\n    /* \"#utility.yul\":5131:5212   */\n  sstore\n    /* \"#utility.yul\":5000:5222   */\n  pop\n    /* \"#utility.yul\":4335:5222   */\n  jump(tag_81)\n    /* \"#utility.yul\":4365:4983   */\ntag_82:\n    /* \"#utility.yul\":4417:4421   */\n  0x1f\n    /* \"#utility.yul\":4413:4422   */\n  not\n    /* \"#utility.yul\":4405:4411   */\n  dup5\n    /* \"#utility.yul\":4401:4423   */\n  and\n    /* \"#utility.yul\":4451:4488   */\n  tag_85\n    /* \"#utility.yul\":4483:4487   */\n  dup7\n    /* \"#utility.yul\":4451:4488   */\n  tag_13\n  jump\t// in\ntag_85:\n    /* \"#utility.yul\":4510:4511   */\n  0x00\n    /* \"#utility.yul\":4524:4732   */\ntag_86:\n    /* \"#utility.yul\":4538:4545   */\n  dup3\n    /* \"#utility.yul\":4535:4536   */\n  dup2\n    /* \"#utility.yul\":4532:4546   */\n  lt\n    /* \"#utility.yul\":4524:4732   */\n  iszero\n  tag_88\n  jumpi\n    /* \"#utility.yul\":4617:4626   */\n  dup5\n    /* \"#utility.yul\":4612:4615   */\n  dup10\n    /* \"#utility.yul\":4608:4627   */\n  add\n    /* \"#utility.yul\":4602:4628   */\n  mload\n    /* \"#utility.yul\":4594:4600   */\n  dup3\n    /* \"#utility.yul\":4587:4629   */\n  sstore\n    /* \"#utility.yul\":4668:4669   */\n  0x01\n    /* \"#utility.yul\":4660:4666   */\n  dup3\n    /* \"#utility.yul\":4656:4670   */\n  add\n    /* \"#utility.yul\":4646:4670   */\n  swap2\n  pop\n    /* \"#utility.yul\":4715:4717   */\n  0x20\n    /* \"#utility.yul\":4704:4713   */\n  dup6\n    /* \"#utility.yul\":4700:4718   */\n  add\n    /* \"#utility.yul\":4687:4718   */\n  swap5\n  pop\n    /* \"#utility.yul\":4561:4565   */\n  0x20\n    /* \"#utility.yul\":4558:4559   */\n  dup2\n    /* \"#utility.yul\":4554:4566   */\n  add\n    /* \"#utility.yul\":4549:4566   */\n  swap1\n  pop\n    /* \"#utility.yul\":4524:4732   */\n  jump(tag_86)\ntag_88:\n    /* \"#utility.yul\":4760:4766   */\n  dup7\n    /* \"#utility.yul\":4751:4758   */\n  dup4\n    /* \"#utility.yul\":4748:4767   */\n  lt\n    /* \"#utility.yul\":4745:4924   */\n  iszero\n  tag_89\n  jumpi\n    /* \"#utility.yul\":4818:4827   */\n  dup5\n    /* \"#utility.yul\":4813:4816   */\n  dup10\n    /* \"#utility.yul\":4809:4828   */\n  add\n    /* \"#utility.yul\":4803:4829   */\n  mload\n    /* \"#utility.yul\":4861:4909   */\n  tag_90\n    /* \"#utility.yul\":4903:4907   */\n  0x1f\n    /* \"#utility.yul\":4895:4901   */\n  dup10\n    /* \"#utility.yul\":4891:4908   */\n  and\n    /* \"#utility.yul\":4880:4889   */\n  dup3\n    /* \"#utility.yul\":4861:4909   */\n  tag_27\n  jump\t// in\ntag_90:\n    /* \"#utility.yul\":4853:4859   */\n  dup4\n    /* \"#utility.yul\":4846:4910   */\n  sstore\n    /* \"#utility.yul\":4768:4924   */\n  pop\n    /* \"#utility.yul\":4745:4924   */\ntag_89:\n    /* \"#utility.yul\":4970:4971   */\n  0x01\n    /* \"#utility.yul\":4966:4967   */\n  0x02\n    /* \"#utility.yul\":4958:4964   */\n  dup9\n    /* \"#utility.yul\":4954:4968   */\n  mul\n    /* \"#utility.yul\":4950:4972   */\n  add\n    /* \"#utility.yul\":4944:4948   */\n  dup9\n    /* \"#utility.yul\":4937:4973   */\n  sstore\n    /* \"#utility.yul\":4372:4983   */\n  pop\n  pop\n  pop\n    /* \"#utility.yul\":4335:5222   */\ntag_81:\n  pop\n    /* \"#utility.yul\":3925:5228   */\n  pop\n  pop\n  pop\n    /* \"#utility.yul\":3833:5228   */\n  pop\n  pop\n  jump\t// out\n    /* \"contracts/mapping.sol\":65:930  contract Mycontarct {... */\ntag_8:\n  dataSize(sub_0)\n  dup1\n  dataOffset(sub_0)\n  0x00\n  codecopy\n  0x00\n  return\nstop\n\nsub_0: assembly {\n        /* \"contracts/mapping.sol\":65:930  contract Mycontarct {... */\n      mstore(0x40, 0x80)\n      callvalue\n      dup1\n      iszero\n      tag_1\n      jumpi\n      0x00\n      dup1\n      revert\n    tag_1:\n      pop\n      jumpi(tag_2, lt(calldatasize, 0x04))\n      shr(0xe0, calldataload(0x00))\n      dup1\n      0xad800c\n      eq\n      tag_3\n      jumpi\n      dup1\n      0x27d3553f\n      eq\n      tag_4\n      jumpi\n      dup1\n      0x51f9ba95\n      eq\n      tag_5\n      jumpi\n      dup1\n      0x68744046\n      eq\n      tag_6\n      jumpi\n      dup1\n      0x8084d8e5\n      eq\n      tag_7\n      jumpi\n    tag_2:\n      0x00\n      dup1\n      revert\n        /* \"contracts/mapping.sol\":92:127  mapping (uint => string)public name */\n    tag_3:\n      tag_8\n      0x04\n      dup1\n      calldatasize\n      sub\n      dup2\n      add\n      swap1\n      tag_9\n      swap2\n      swap1\n      tag_10\n      jump\t// in\n    tag_9:\n      tag_11\n      jump\t// in\n    tag_8:\n      mload(0x40)\n      tag_12\n      swap2\n      swap1\n      tag_13\n      jump\t// in\n    tag_12:\n      mload(0x40)\n      dup1\n      swap2\n      sub\n      swap1\n      return\n        /* \"contracts/mapping.sol\":176:233  mapping (address => mapping(uint => book)) public myBooks */\n    tag_4:\n      tag_14\n      0x04\n      dup1\n      calldatasize\n      sub\n      dup2\n      add\n      swap1\n      tag_15\n      swap2\n      swap1\n      tag_16\n      jump\t// in\n    tag_15:\n      tag_17\n      jump\t// in\n    tag_14:\n      mload(0x40)\n      tag_18\n      swap3\n      swap2\n      swap1\n      tag_19\n      jump\t// in\n    tag_18:\n      mload(0x40)\n      dup1\n      swap2\n      sub\n      swap1\n      return\n        /* \"contracts/mapping.sol\":465:652  function addbook (... */\n    tag_5:\n      tag_20\n      0x04\n      dup1\n      calldatasize\n      sub\n      dup2\n      add\n      swap1\n      tag_21\n      swap2\n      swap1\n      tag_22\n      jump\t// in\n    tag_21:\n      tag_23\n      jump\t// in\n    tag_20:\n      stop\n        /* \"contracts/mapping.sol\":135:169  mapping (uint => book)public books */\n    tag_6:\n      tag_24\n      0x04\n      dup1\n      calldatasize\n      sub\n      dup2\n      add\n      swap1\n      tag_25\n      swap2\n      swap1\n      tag_10\n      jump\t// in\n    tag_25:\n      tag_26\n      jump\t// in\n    tag_24:\n      mload(0x40)\n      tag_27\n      swap3\n      swap2\n      swap1\n      tag_19\n      jump\t// in\n    tag_27:\n      mload(0x40)\n      dup1\n      swap2\n      sub\n      swap1\n      return\n        /* \"contracts/mapping.sol\":668:918  function addMybook (... */\n    tag_7:\n      tag_28\n      0x04\n      dup1\n      calldatasize\n      sub\n      dup2\n      add\n      swap1\n      tag_29\n      swap2\n      swap1\n      tag_22\n      jump\t// in\n    tag_29:\n      tag_30\n      jump\t// in\n    tag_28:\n      stop\n        /* \"contracts/mapping.sol\":92:127  mapping (uint => string)public name */\n    tag_11:\n      mstore(0x20, 0x00)\n      dup1\n      0x00\n      mstore\n      keccak256(0x00, 0x40)\n      0x00\n      swap2\n      pop\n      swap1\n      pop\n      dup1\n      sload\n      tag_31\n      swap1\n      tag_32\n      jump\t// in\n    tag_31:\n      dup1\n      0x1f\n      add\n      0x20\n      dup1\n      swap2\n      div\n      mul\n      0x20\n      add\n      mload(0x40)\n      swap1\n      dup2\n      add\n      0x40\n      mstore\n      dup1\n      swap3\n      swap2\n      swap1\n      dup2\n      dup2\n      mstore\n      0x20\n      add\n      dup3\n      dup1\n      sload\n      tag_33\n      swap1\n      tag_32\n      jump\t// in\n    tag_33:\n      dup1\n      iszero\n      tag_34\n      jumpi\n      dup1\n      0x1f\n      lt\n      tag_35\n      jumpi\n      0x0100\n      dup1\n      dup4\n      sload\n      div\n      mul\n      dup4\n      mstore\n      swap2\n      0x20\n      add\n      swap2\n      jump(tag_34)\n    tag_35:\n      dup3\n      add\n      swap2\n      swap1\n      0x00\n      mstore\n      keccak256(0x00, 0x20)\n      swap1\n    tag_36:\n      dup2\n      sload\n      dup2\n      mstore\n      swap1\n      0x01\n      add\n      swap1\n      0x20\n      add\n      dup1\n      dup4\n      gt\n      tag_36\n      jumpi\n      dup3\n      swap1\n      sub\n      0x1f\n      and\n      dup3\n      add\n      swap2\n    tag_34:\n      pop\n      pop\n      pop\n      pop\n      pop\n      dup2\n      jump\t// out\n        /* \"contracts/mapping.sol\":176:233  mapping (address => mapping(uint => book)) public myBooks */\n    tag_17:\n      mstore(0x20, 0x02)\n      dup2\n      0x00\n      mstore\n      mstore(0x20, keccak256(0x00, 0x40))\n      dup1\n      0x00\n      mstore\n      keccak256(0x00, 0x40)\n      0x00\n      swap2\n      pop\n      swap2\n      pop\n      pop\n      dup1\n      0x00\n      add\n      dup1\n      sload\n      tag_37\n      swap1\n      tag_32\n      jump\t// in\n    tag_37:\n      dup1\n      0x1f\n      add\n      0x20\n      dup1\n      swap2\n      div\n      mul\n      0x20\n      add\n      mload(0x40)\n      swap1\n      dup2\n      add\n      0x40\n      mstore\n      dup1\n      swap3\n      swap2\n      swap1\n      dup2\n      dup2\n      mstore\n      0x20\n      add\n      dup3\n      dup1\n      sload\n      tag_38\n      swap1\n      tag_32\n      jump\t// in\n    tag_38:\n      dup1\n      iszero\n      tag_39\n      jumpi\n      dup1\n      0x1f\n      lt\n      tag_40\n      jumpi\n      0x0100\n      dup1\n      dup4\n      sload\n      div\n      mul\n      dup4\n      mstore\n      swap2\n      0x20\n      add\n      swap2\n      jump(tag_39)\n    tag_40:\n      dup3\n      add\n      swap2\n      swap1\n      0x00\n      mstore\n      keccak256(0x00, 0x20)\n      swap1\n    tag_41:\n      dup2\n      sload\n      dup2\n      mstore\n      swap1\n      0x01\n      add\n      swap1\n      0x20\n      add\n      dup1\n      dup4\n      gt\n      tag_41\n      jumpi\n      dup3\n      swap1\n      sub\n      0x1f\n      and\n      dup3\n      add\n      swap2\n    tag_39:\n      pop\n      pop\n      pop\n      pop\n      pop\n      swap1\n      dup1\n      0x01\n      add\n      dup1\n      sload\n      tag_42\n      swap1\n      tag_32\n      jump\t// in\n    tag_42:\n      dup1\n      0x1f\n      add\n      0x20\n      dup1\n      swap2\n      div\n      mul\n      0x20\n      add\n      mload(0x40)\n      swap1\n      dup2\n      add\n      0x40\n      mstore\n      dup1\n      swap3\n      swap2\n      swap1\n      dup2\n      dup2\n      mstore\n      0x20\n      add\n      dup3\n      dup1\n      sload\n      tag_43\n      swap1\n      tag_32\n      jump\t// in\n    tag_43:\n      dup1\n      iszero\n      tag_44\n      jumpi\n      dup1\n      0x1f\n      lt\n      tag_45\n      jumpi\n      0x0100\n      dup1\n      dup4\n      sload\n      div\n      mul\n      dup4\n      mstore\n      swap2\n      0x20\n      add\n      swap2\n      jump(tag_44)\n    tag_45:\n      dup3\n      add\n      swap2\n      swap1\n      0x00\n      mstore\n      keccak256(0x00, 0x20)\n      swap1\n    tag_46:\n      dup2\n      sload\n      dup2\n      mstore\n      swap1\n      0x01\n      add\n      swap1\n      0x20\n      add\n      dup1\n      dup4\n      gt\n      tag_46\n      jumpi\n      dup3\n      swap1\n      sub\n      0x1f\n      and\n      dup3\n      add\n      swap2\n    tag_44:\n      pop\n      pop\n      pop\n      pop\n      pop\n      swap1\n      pop\n      dup3\n      jump\t// out\n        /* \"contracts/mapping.sol\":465:652  function addbook (... */\n    tag_23:\n        /* \"contracts/mapping.sol\":614:634  book(_title,_author) */\n      mload(0x40)\n      dup1\n      0x40\n      add\n      0x40\n      mstore\n      dup1\n        /* \"contracts/mapping.sol\":619:625  _title */\n      dup4\n        /* \"contracts/mapping.sol\":614:634  book(_title,_author) */\n      dup2\n      mstore\n      0x20\n      add\n        /* \"contracts/mapping.sol\":626:633  _author */\n      dup3\n        /* \"contracts/mapping.sol\":614:634  book(_title,_author) */\n      dup2\n      mstore\n      pop\n        /* \"contracts/mapping.sol\":601:606  books */\n      0x01\n        /* \"contracts/mapping.sol\":601:611  books[_id] */\n      0x00\n        /* \"contracts/mapping.sol\":607:610  _id */\n      dup6\n        /* \"contracts/mapping.sol\":601:611  books[_id] */\n      dup2\n      mstore\n      0x20\n      add\n      swap1\n      dup2\n      mstore\n      0x20\n      add\n      0x00\n      keccak256\n        /* \"contracts/mapping.sol\":601:634  books[_id] = book(_title,_author) */\n      0x00\n      dup3\n      add\n      mload\n      dup2\n      0x00\n      add\n      swap1\n      dup2\n      tag_48\n      swap2\n      swap1\n      tag_49\n      jump\t// in\n    tag_48:\n      pop\n      0x20\n      dup3\n      add\n      mload\n      dup2\n      0x01\n      add\n      swap1\n      dup2\n      tag_50\n      swap2\n      swap1\n      tag_49\n      jump\t// in\n    tag_50:\n      pop\n      swap1\n      pop\n      pop\n        /* \"contracts/mapping.sol\":465:652  function addbook (... */\n      pop\n      pop\n      pop\n      jump\t// out\n        /* \"contracts/mapping.sol\":135:169  mapping (uint => book)public books */\n    tag_26:\n      mstore(0x20, 0x01)\n      dup1\n      0x00\n      mstore\n      keccak256(0x00, 0x40)\n      0x00\n      swap2\n      pop\n      swap1\n      pop\n      dup1\n      0x00\n      add\n      dup1\n      sload\n      tag_51\n      swap1\n      tag_32\n      jump\t// in\n    tag_51:\n      dup1\n      0x1f\n      add\n      0x20\n      dup1\n      swap2\n      div\n      mul\n      0x20\n      add\n      mload(0x40)\n      swap1\n      dup2\n      add\n      0x40\n      mstore\n      dup1\n      swap3\n      swap2\n      swap1\n      dup2\n      dup2\n      mstore\n      0x20\n      add\n      dup3\n      dup1\n      sload\n      tag_52\n      swap1\n      tag_32\n      jump\t// in\n    tag_52:\n      dup1\n      iszero\n      tag_53\n      jumpi\n      dup1\n      0x1f\n      lt\n      tag_54\n      jumpi\n      0x0100\n      dup1\n      dup4\n      sload\n      div\n      mul\n      dup4\n      mstore\n      swap2\n      0x20\n      add\n      swap2\n      jump(tag_53)\n    tag_54:\n      dup3\n      add\n      swap2\n      swap1\n      0x00\n      mstore\n      keccak256(0x00, 0x20)\n      swap1\n    tag_55:\n      dup2\n      sload\n      dup2\n      mstore\n      swap1\n      0x01\n      add\n      swap1\n      0x20\n      add\n      dup1\n      dup4\n      gt\n      tag_55\n      jumpi\n      dup3\n      swap1\n      sub\n      0x1f\n      and\n      dup3\n      add\n      swap2\n    tag_53:\n      pop\n      pop\n      pop\n      pop\n      pop\n      swap1\n      dup1\n      0x01\n      add\n      dup1\n      sload\n      tag_56\n      swap1\n      tag_32\n      jump\t// in\n    tag_56:\n      dup1\n      0x1f\n      add\n      0x20\n      dup1\n      swap2\n      div\n      mul\n      0x20\n      add\n      mload(0x40)\n      swap1\n      dup2\n      add\n      0x40\n      mstore\n      dup1\n      swap3\n      swap2\n      swap1\n      dup2\n      dup2\n      mstore\n      0x20\n      add\n      dup3\n      dup1\n      sload\n      tag_57\n      swap1\n      tag_32\n      jump\t// in\n    tag_57:\n      dup1\n      iszero\n      tag_58\n      jumpi\n      dup1\n      0x1f\n      lt\n      tag_59\n      jumpi\n      0x0100\n      dup1\n      dup4\n      sload\n      div\n      mul\n      dup4\n      mstore\n      swap2\n      0x20\n      add\n      swap2\n      jump(tag_58)\n    tag_59:\n      dup3\n      add\n      swap2\n      swap1\n      0x00\n      mstore\n      keccak256(0x00, 0x20)\n      swap1\n    tag_60:\n      dup2\n      sload\n      dup2\n      mstore\n      swap1\n      0x01\n      add\n      swap1\n      0x20\n      add\n      dup1\n      dup4\n      gt\n      tag_60\n      jumpi\n      dup3\n      swap1\n      sub\n      0x1f\n      and\n      dup3\n      add\n      swap2\n    tag_58:\n      pop\n      pop\n      pop\n      pop\n      pop\n      swap1\n      pop\n      dup3\n      jump\t// out\n        /* \"contracts/mapping.sol\":668:918  function addMybook (... */\n    tag_30:\n        /* \"contracts/mapping.sol\":818:838  book(_title,_author) */\n      mload(0x40)\n      dup1\n      0x40\n      add\n      0x40\n      mstore\n      dup1\n        /* \"contracts/mapping.sol\":823:829  _title */\n      dup4\n        /* \"contracts/mapping.sol\":818:838  book(_title,_author) */\n      dup2\n      mstore\n      0x20\n      add\n        /* \"contracts/mapping.sol\":830:837  _author */\n      dup3\n        /* \"contracts/mapping.sol\":818:838  book(_title,_author) */\n      dup2\n      mstore\n      pop\n        /* \"contracts/mapping.sol\":805:810  books */\n      0x01\n        /* \"contracts/mapping.sol\":805:815  books[_id] */\n      0x00\n        /* \"contracts/mapping.sol\":811:814  _id */\n      dup6\n        /* \"contracts/mapping.sol\":805:815  books[_id] */\n      dup2\n      mstore\n      0x20\n      add\n      swap1\n      dup2\n      mstore\n      0x20\n      add\n      0x00\n      keccak256\n        /* \"contracts/mapping.sol\":805:838  books[_id] = book(_title,_author) */\n      0x00\n      dup3\n      add\n      mload\n      dup2\n      0x00\n      add\n      swap1\n      dup2\n      tag_62\n      swap2\n      swap1\n      tag_49\n      jump\t// in\n    tag_62:\n      pop\n      0x20\n      dup3\n      add\n      mload\n      dup2\n      0x01\n      add\n      swap1\n      dup2\n      tag_63\n      swap2\n      swap1\n      tag_49\n      jump\t// in\n    tag_63:\n      pop\n      swap1\n      pop\n      pop\n        /* \"contracts/mapping.sol\":882:902  book(_title,_author) */\n      mload(0x40)\n      dup1\n      0x40\n      add\n      0x40\n      mstore\n      dup1\n        /* \"contracts/mapping.sol\":887:893  _title */\n      dup4\n        /* \"contracts/mapping.sol\":882:902  book(_title,_author) */\n      dup2\n      mstore\n      0x20\n      add\n        /* \"contracts/mapping.sol\":894:901  _author */\n      dup3\n        /* \"contracts/mapping.sol\":882:902  book(_title,_author) */\n      dup2\n      mstore\n      pop\n        /* \"contracts/mapping.sol\":855:862  myBooks */\n      0x02\n        /* \"contracts/mapping.sol\":855:874  myBooks[msg.sender] */\n      0x00\n        /* \"contracts/mapping.sol\":863:873  msg.sender */\n      caller\n        /* \"contracts/mapping.sol\":855:874  myBooks[msg.sender] */\n      0xffffffffffffffffffffffffffffffffffffffff\n      and\n      0xffffffffffffffffffffffffffffffffffffffff\n      and\n      dup2\n      mstore\n      0x20\n      add\n      swap1\n      dup2\n      mstore\n      0x20\n      add\n      0x00\n      keccak256\n        /* \"contracts/mapping.sol\":855:879  myBooks[msg.sender][_id] */\n      0x00\n        /* \"contracts/mapping.sol\":875:878  _id */\n      dup6\n        /* \"contracts/mapping.sol\":855:879  myBooks[msg.sender][_id] */\n      dup2\n      mstore\n      0x20\n      add\n      swap1\n      dup2\n      mstore\n      0x20\n      add\n      0x00\n      keccak256\n        /* \"contracts/mapping.sol\":855:902  myBooks[msg.sender][_id] = book(_title,_author) */\n      0x00\n      dup3\n      add\n      mload\n      dup2\n      0x00\n      add\n      swap1\n      dup2\n      tag_64\n      swap2\n      swap1\n      tag_49\n      jump\t// in\n    tag_64:\n      pop\n      0x20\n      dup3\n      add\n      mload\n      dup2\n      0x01\n      add\n      swap1\n      dup2\n      tag_65\n      swap2\n      swap1\n      tag_49\n      jump\t// in\n    tag_65:\n      pop\n      swap1\n      pop\n      pop\n        /* \"contracts/mapping.sol\":668:918  function addMybook (... */\n      pop\n      pop\n      pop\n      jump\t// out\n        /* \"#utility.yul\":7:82   */\n    tag_66:\n        /* \"#utility.yul\":40:46   */\n      0x00\n        /* \"#utility.yul\":73:75   */\n      0x40\n        /* \"#utility.yul\":67:76   */\n      mload\n        /* \"#utility.yul\":57:76   */\n      swap1\n      pop\n        /* \"#utility.yul\":7:82   */\n      swap1\n      jump\t// out\n        /* \"#utility.yul\":88:205   */\n    tag_67:\n        /* \"#utility.yul\":197:198   */\n      0x00\n        /* \"#utility.yul\":194:195   */\n      dup1\n        /* \"#utility.yul\":187:199   */\n      revert\n        /* \"#utility.yul\":211:328   */\n    tag_68:\n        /* \"#utility.yul\":320:321   */\n      0x00\n        /* \"#utility.yul\":317:318   */\n      dup1\n        /* \"#utility.yul\":310:322   */\n      revert\n        /* \"#utility.yul\":334:411   */\n    tag_69:\n        /* \"#utility.yul\":371:378   */\n      0x00\n        /* \"#utility.yul\":400:405   */\n      dup2\n        /* \"#utility.yul\":389:405   */\n      swap1\n      pop\n        /* \"#utility.yul\":334:411   */\n      swap2\n      swap1\n      pop\n      jump\t// out\n        /* \"#utility.yul\":417:539   */\n    tag_70:\n        /* \"#utility.yul\":490:514   */\n      tag_112\n        /* \"#utility.yul\":508:513   */\n      dup2\n        /* \"#utility.yul\":490:514   */\n      tag_69\n      jump\t// in\n    tag_112:\n        /* \"#utility.yul\":483:488   */\n      dup2\n        /* \"#utility.yul\":480:515   */\n      eq\n        /* \"#utility.yul\":470:533   */\n      tag_113\n      jumpi\n        /* \"#utility.yul\":529:530   */\n      0x00\n        /* \"#utility.yul\":526:527   */\n      dup1\n        /* \"#utility.yul\":519:531   */\n      revert\n        /* \"#utility.yul\":470:533   */\n    tag_113:\n        /* \"#utility.yul\":417:539   */\n      pop\n      jump\t// out\n        /* \"#utility.yul\":545:684   */\n    tag_71:\n        /* \"#utility.yul\":591:596   */\n      0x00\n        /* \"#utility.yul\":629:635   */\n      dup2\n        /* \"#utility.yul\":616:636   */\n      calldataload\n        /* \"#utility.yul\":607:636   */\n      swap1\n      pop\n        /* \"#utility.yul\":645:678   */\n      tag_115\n        /* \"#utility.yul\":672:677   */\n      dup2\n        /* \"#utility.yul\":645:678   */\n      tag_70\n      jump\t// in\n    tag_115:\n        /* \"#utility.yul\":545:684   */\n      swap3\n      swap2\n      pop\n      pop\n      jump\t// out\n        /* \"#utility.yul\":690:1019   */\n    tag_10:\n        /* \"#utility.yul\":749:755   */\n      0x00\n        /* \"#utility.yul\":798:800   */\n      0x20\n        /* \"#utility.yul\":786:795   */\n      dup3\n        /* \"#utility.yul\":777:784   */\n      dup5\n        /* \"#utility.yul\":773:796   */\n      sub\n        /* \"#utility.yul\":769:801   */\n      slt\n        /* \"#utility.yul\":766:885   */\n      iszero\n      tag_117\n      jumpi\n        /* \"#utility.yul\":804:883   */\n      tag_118\n      tag_67\n      jump\t// in\n    tag_118:\n        /* \"#utility.yul\":766:885   */\n    tag_117:\n        /* \"#utility.yul\":924:925   */\n      0x00\n        /* \"#utility.yul\":949:1002   */\n      tag_119\n        /* \"#utility.yul\":994:1001   */\n      dup5\n        /* \"#utility.yul\":985:991   */\n      dup3\n        /* \"#utility.yul\":974:983   */\n      dup6\n        /* \"#utility.yul\":970:992   */\n      add\n        /* \"#utility.yul\":949:1002   */\n      tag_71\n      jump\t// in\n    tag_119:\n        /* \"#utility.yul\":939:1002   */\n      swap2\n      pop\n        /* \"#utility.yul\":895:1012   */\n      pop\n        /* \"#utility.yul\":690:1019   */\n      swap3\n      swap2\n      pop\n      pop\n      jump\t// out\n        /* \"#utility.yul\":1025:1124   */\n    tag_72:\n        /* \"#utility.yul\":1077:1083   */\n      0x00\n        /* \"#utility.yul\":1111:1116   */\n      dup2\n        /* \"#utility.yul\":1105:1117   */\n      mload\n        /* \"#utility.yul\":1095:1117   */\n      swap1\n      pop\n        /* \"#utility.yul\":1025:1124   */\n      swap2\n      swap1\n      pop\n      jump\t// out\n        /* \"#utility.yul\":1130:1299   */\n    tag_73:\n        /* \"#utility.yul\":1214:1225   */\n      0x00\n        /* \"#utility.yul\":1248:1254   */\n      dup3\n        /* \"#utility.yul\":1243:1246   */\n      dup3\n        /* \"#utility.yul\":1236:1255   */\n      mstore\n        /* \"#utility.yul\":1288:1292   */\n      0x20\n        /* \"#utility.yul\":1283:1286   */\n      dup3\n        /* \"#utility.yul\":1279:1293   */\n      add\n        /* \"#utility.yul\":1264:1293   */\n      swap1\n      pop\n        /* \"#utility.yul\":1130:1299   */\n      swap3\n      swap2\n      pop\n      pop\n      jump\t// out\n        /* \"#utility.yul\":1305:1444   */\n    tag_74:\n        /* \"#utility.yul\":1394:1400   */\n      dup3\n        /* \"#utility.yul\":1389:1392   */\n      dup2\n        /* \"#utility.yul\":1384:1387   */\n      dup4\n        /* \"#utility.yul\":1378:1401   */\n      mcopy\n        /* \"#utility.yul\":1435:1436   */\n      0x00\n        /* \"#utility.yul\":1426:1432   */\n      dup4\n        /* \"#utility.yul\":1421:1424   */\n      dup4\n        /* \"#utility.yul\":1417:1433   */\n      add\n        /* \"#utility.yul\":1410:1437   */\n      mstore\n        /* \"#utility.yul\":1305:1444   */\n      pop\n      pop\n      pop\n      jump\t// out\n        /* \"#utility.yul\":1450:1552   */\n    tag_75:\n        /* \"#utility.yul\":1491:1497   */\n      0x00\n        /* \"#utility.yul\":1542:1544   */\n      0x1f\n        /* \"#utility.yul\":1538:1545   */\n      not\n        /* \"#utility.yul\":1533:1535   */\n      0x1f\n        /* \"#utility.yul\":1526:1531   */\n      dup4\n        /* \"#utility.yul\":1522:1536   */\n      add\n        /* \"#utility.yul\":1518:1546   */\n      and\n        /* \"#utility.yul\":1508:1546   */\n      swap1\n      pop\n        /* \"#utility.yul\":1450:1552   */\n      swap2\n      swap1\n      pop\n      jump\t// out\n        /* \"#utility.yul\":1558:1935   */\n    tag_76:\n        /* \"#utility.yul\":1646:1649   */\n      0x00\n        /* \"#utility.yul\":1674:1713   */\n      tag_125\n        /* \"#utility.yul\":1707:1712   */\n      dup3\n        /* \"#utility.yul\":1674:1713   */\n      tag_72\n      jump\t// in\n    tag_125:\n        /* \"#utility.yul\":1729:1800   */\n      tag_126\n        /* \"#utility.yul\":1793:1799   */\n      dup2\n        /* \"#utility.yul\":1788:1791   */\n      dup6\n        /* \"#utility.yul\":1729:1800   */\n      tag_73\n      jump\t// in\n    tag_126:\n        /* \"#utility.yul\":1722:1800   */\n      swap4\n      pop\n        /* \"#utility.yul\":1809:1874   */\n      tag_127\n        /* \"#utility.yul\":1867:1873   */\n      dup2\n        /* \"#utility.yul\":1862:1865   */\n      dup6\n        /* \"#utility.yul\":1855:1859   */\n      0x20\n        /* \"#utility.yul\":1848:1853   */\n      dup7\n        /* \"#utility.yul\":1844:1860   */\n      add\n        /* \"#utility.yul\":1809:1874   */\n      tag_74\n      jump\t// in\n    tag_127:\n        /* \"#utility.yul\":1899:1928   */\n      tag_128\n        /* \"#utility.yul\":1921:1927   */\n      dup2\n        /* \"#utility.yul\":1899:1928   */\n      tag_75\n      jump\t// in\n    tag_128:\n        /* \"#utility.yul\":1894:1897   */\n      dup5\n        /* \"#utility.yul\":1890:1929   */\n      add\n        /* \"#utility.yul\":1883:1929   */\n      swap2\n      pop\n        /* \"#utility.yul\":1650:1935   */\n      pop\n        /* \"#utility.yul\":1558:1935   */\n      swap3\n      swap2\n      pop\n      pop\n      jump\t// out\n        /* \"#utility.yul\":1941:2254   */\n    tag_13:\n        /* \"#utility.yul\":2054:2058   */\n      0x00\n        /* \"#utility.yul\":2092:2094   */\n      0x20\n        /* \"#utility.yul\":2081:2090   */\n      dup3\n        /* \"#utility.yul\":2077:2095   */\n      add\n        /* \"#utility.yul\":2069:2095   */\n      swap1\n      pop\n        /* \"#utility.yul\":2141:2150   */\n      dup2\n        /* \"#utility.yul\":2135:2139   */\n      dup2\n        /* \"#utility.yul\":2131:2151   */\n      sub\n        /* \"#utility.yul\":2127:2128   */\n      0x00\n        /* \"#utility.yul\":2116:2125   */\n      dup4\n        /* \"#utility.yul\":2112:2129   */\n      add\n        /* \"#utility.yul\":2105:2152   */\n      mstore\n        /* \"#utility.yul\":2169:2247   */\n      tag_130\n        /* \"#utility.yul\":2242:2246   */\n      dup2\n        /* \"#utility.yul\":2233:2239   */\n      dup5\n        /* \"#utility.yul\":2169:2247   */\n      tag_76\n      jump\t// in\n    tag_130:\n        /* \"#utility.yul\":2161:2247   */\n      swap1\n      pop\n        /* \"#utility.yul\":1941:2254   */\n      swap3\n      swap2\n      pop\n      pop\n      jump\t// out\n        /* \"#utility.yul\":2260:2386   */\n    tag_77:\n        /* \"#utility.yul\":2297:2304   */\n      0x00\n        /* \"#utility.yul\":2337:2379   */\n      0xffffffffffffffffffffffffffffffffffffffff\n        /* \"#utility.yul\":2330:2335   */\n      dup3\n        /* \"#utility.yul\":2326:2380   */\n      and\n        /* \"#utility.yul\":2315:2380   */\n      swap1\n      pop\n        /* \"#utility.yul\":2260:2386   */\n      swap2\n      swap1\n      pop\n      jump\t// out\n        /* \"#utility.yul\":2392:2488   */\n    tag_78:\n        /* \"#utility.yul\":2429:2436   */\n      0x00\n        /* \"#utility.yul\":2458:2482   */\n      tag_133\n        /* \"#utility.yul\":2476:2481   */\n      dup3\n        /* \"#utility.yul\":2458:2482   */\n      tag_77\n      jump\t// in\n    tag_133:\n        /* \"#utility.yul\":2447:2482   */\n      swap1\n      pop\n        /* \"#utility.yul\":2392:2488   */\n      swap2\n      swap1\n      pop\n      jump\t// out\n        /* \"#utility.yul\":2494:2616   */\n    tag_79:\n        /* \"#utility.yul\":2567:2591   */\n      tag_135\n        /* \"#utility.yul\":2585:2590   */\n      dup2\n        /* \"#utility.yul\":2567:2591   */\n      tag_78\n      jump\t// in\n    tag_135:\n        /* \"#utility.yul\":2560:2565   */\n      dup2\n        /* \"#utility.yul\":2557:2592   */\n      eq\n        /* \"#utility.yul\":2547:2610   */\n      tag_136\n      jumpi\n        /* \"#utility.yul\":2606:2607   */\n      0x00\n        /* \"#utility.yul\":2603:2604   */\n      dup1\n        /* \"#utility.yul\":2596:2608   */\n      revert\n        /* \"#utility.yul\":2547:2610   */\n    tag_136:\n        /* \"#utility.yul\":2494:2616   */\n      pop\n      jump\t// out\n        /* \"#utility.yul\":2622:2761   */\n    tag_80:\n        /* \"#utility.yul\":2668:2673   */\n      0x00\n        /* \"#utility.yul\":2706:2712   */\n      dup2\n        /* \"#utility.yul\":2693:2713   */\n      calldataload\n        /* \"#utility.yul\":2684:2713   */\n      swap1\n      pop\n        /* \"#utility.yul\":2722:2755   */\n      tag_138\n        /* \"#utility.yul\":2749:2754   */\n      dup2\n        /* \"#utility.yul\":2722:2755   */\n      tag_79\n      jump\t// in\n    tag_138:\n        /* \"#utility.yul\":2622:2761   */\n      swap3\n      swap2\n      pop\n      pop\n      jump\t// out\n        /* \"#utility.yul\":2767:3241   */\n    tag_16:\n        /* \"#utility.yul\":2835:2841   */\n      0x00\n        /* \"#utility.yul\":2843:2849   */\n      dup1\n        /* \"#utility.yul\":2892:2894   */\n      0x40\n        /* \"#utility.yul\":2880:2889   */\n      dup4\n        /* \"#utility.yul\":2871:2878   */\n      dup6\n        /* \"#utility.yul\":2867:2890   */\n      sub\n        /* \"#utility.yul\":2863:2895   */\n      slt\n        /* \"#utility.yul\":2860:2979   */\n      iszero\n      tag_140\n      jumpi\n        /* \"#utility.yul\":2898:2977   */\n      tag_141\n      tag_67\n      jump\t// in\n    tag_141:\n        /* \"#utility.yul\":2860:2979   */\n    tag_140:\n        /* \"#utility.yul\":3018:3019   */\n      0x00\n        /* \"#utility.yul\":3043:3096   */\n      tag_142\n        /* \"#utility.yul\":3088:3095   */\n      dup6\n        /* \"#utility.yul\":3079:3085   */\n      dup3\n        /* \"#utility.yul\":3068:3077   */\n      dup7\n        /* \"#utility.yul\":3064:3086   */\n      add\n        /* \"#utility.yul\":3043:3096   */\n      tag_80\n      jump\t// in\n    tag_142:\n        /* \"#utility.yul\":3033:3096   */\n      swap3\n      pop\n        /* \"#utility.yul\":2989:3106   */\n      pop\n        /* \"#utility.yul\":3145:3147   */\n      0x20\n        /* \"#utility.yul\":3171:3224   */\n      tag_143\n        /* \"#utility.yul\":3216:3223   */\n      dup6\n        /* \"#utility.yul\":3207:3213   */\n      dup3\n        /* \"#utility.yul\":3196:3205   */\n      dup7\n        /* \"#utility.yul\":3192:3214   */\n      add\n        /* \"#utility.yul\":3171:3224   */\n      tag_71\n      jump\t// in\n    tag_143:\n        /* \"#utility.yul\":3161:3224   */\n      swap2\n      pop\n        /* \"#utility.yul\":3116:3234   */\n      pop\n        /* \"#utility.yul\":2767:3241   */\n      swap3\n      pop\n      swap3\n      swap1\n      pop\n      jump\t// out\n        /* \"#utility.yul\":3247:3761   */\n    tag_19:\n        /* \"#utility.yul\":3408:3412   */\n      0x00\n        /* \"#utility.yul\":3446:3448   */\n      0x40\n        /* \"#utility.yul\":3435:3444   */\n      dup3\n        /* \"#utility.yul\":3431:3449   */\n      add\n        /* \"#utility.yul\":3423:3449   */\n      swap1\n      pop\n        /* \"#utility.yul\":3495:3504   */\n      dup2\n        /* \"#utility.yul\":3489:3493   */\n      dup2\n        /* \"#utility.yul\":3485:3505   */\n      sub\n        /* \"#utility.yul\":3481:3482   */\n      0x00\n        /* \"#utility.yul\":3470:3479   */\n      dup4\n        /* \"#utility.yul\":3466:3483   */\n      add\n        /* \"#utility.yul\":3459:3506   */\n      mstore\n        /* \"#utility.yul\":3523:3601   */\n      tag_145\n        /* \"#utility.yul\":3596:3600   */\n      dup2\n        /* \"#utility.yul\":3587:3593   */\n      dup6\n        /* \"#utility.yul\":3523:3601   */\n      tag_76\n      jump\t// in\n    tag_145:\n        /* \"#utility.yul\":3515:3601   */\n      swap1\n      pop\n        /* \"#utility.yul\":3648:3657   */\n      dup2\n        /* \"#utility.yul\":3642:3646   */\n      dup2\n        /* \"#utility.yul\":3638:3658   */\n      sub\n        /* \"#utility.yul\":3633:3635   */\n      0x20\n        /* \"#utility.yul\":3622:3631   */\n      dup4\n        /* \"#utility.yul\":3618:3636   */\n      add\n        /* \"#utility.yul\":3611:3659   */\n      mstore\n        /* \"#utility.yul\":3676:3754   */\n      tag_146\n        /* \"#utility.yul\":3749:3753   */\n      dup2\n        /* \"#utility.yul\":3740:3746   */\n      dup5\n        /* \"#utility.yul\":3676:3754   */\n      tag_76\n      jump\t// in\n    tag_146:\n        /* \"#utility.yul\":3668:3754   */\n      swap1\n      pop\n        /* \"#utility.yul\":3247:3761   */\n      swap4\n      swap3\n      pop\n      pop\n      pop\n      jump\t// out\n        /* \"#utility.yul\":3767:3884   */\n    tag_81:\n        /* \"#utility.yul\":3876:3877   */\n      0x00\n        /* \"#utility.yul\":3873:3874   */\n      dup1\n        /* \"#utility.yul\":3866:3878   */\n      revert\n        /* \"#utility.yul\":3890:4007   */\n    tag_82:\n        /* \"#utility.yul\":3999:4000   */\n      0x00\n        /* \"#utility.yul\":3996:3997   */\n      dup1\n        /* \"#utility.yul\":3989:4001   */\n      revert\n        /* \"#utility.yul\":4013:4193   */\n    tag_83:\n        /* \"#utility.yul\":4061:4138   */\n      0x4e487b7100000000000000000000000000000000000000000000000000000000\n        /* \"#utility.yul\":4058:4059   */\n      0x00\n        /* \"#utility.yul\":4051:4139   */\n      mstore\n        /* \"#utility.yul\":4158:4162   */\n      0x41\n        /* \"#utility.yul\":4155:4156   */\n      0x04\n        /* \"#utility.yul\":4148:4163   */\n      mstore\n        /* \"#utility.yul\":4182:4186   */\n      0x24\n        /* \"#utility.yul\":4179:4180   */\n      0x00\n        /* \"#utility.yul\":4172:4187   */\n      revert\n        /* \"#utility.yul\":4199:4480   */\n    tag_84:\n        /* \"#utility.yul\":4282:4309   */\n      tag_151\n        /* \"#utility.yul\":4304:4308   */\n      dup3\n        /* \"#utility.yul\":4282:4309   */\n      tag_75\n      jump\t// in\n    tag_151:\n        /* \"#utility.yul\":4274:4280   */\n      dup2\n        /* \"#utility.yul\":4270:4310   */\n      add\n        /* \"#utility.yul\":4412:4418   */\n      dup2\n        /* \"#utility.yul\":4400:4410   */\n      dup2\n        /* \"#utility.yul\":4397:4419   */\n      lt\n        /* \"#utility.yul\":4376:4394   */\n      0xffffffffffffffff\n        /* \"#utility.yul\":4364:4374   */\n      dup3\n        /* \"#utility.yul\":4361:4395   */\n      gt\n        /* \"#utility.yul\":4358:4420   */\n      or\n        /* \"#utility.yul\":4355:4443   */\n      iszero\n      tag_152\n      jumpi\n        /* \"#utility.yul\":4423:4441   */\n      tag_153\n      tag_83\n      jump\t// in\n    tag_153:\n        /* \"#utility.yul\":4355:4443   */\n    tag_152:\n        /* \"#utility.yul\":4463:4473   */\n      dup1\n        /* \"#utility.yul\":4459:4461   */\n      0x40\n        /* \"#utility.yul\":4452:4474   */\n      mstore\n        /* \"#utility.yul\":4242:4480   */\n      pop\n        /* \"#utility.yul\":4199:4480   */\n      pop\n      pop\n      jump\t// out\n        /* \"#utility.yul\":4486:4615   */\n    tag_85:\n        /* \"#utility.yul\":4520:4526   */\n      0x00\n        /* \"#utility.yul\":4547:4567   */\n      tag_155\n      tag_66\n      jump\t// in\n    tag_155:\n        /* \"#utility.yul\":4537:4567   */\n      swap1\n      pop\n        /* \"#utility.yul\":4576:4609   */\n      tag_156\n        /* \"#utility.yul\":4604:4608   */\n      dup3\n        /* \"#utility.yul\":4596:4602   */\n      dup3\n        /* \"#utility.yul\":4576:4609   */\n      tag_84\n      jump\t// in\n    tag_156:\n        /* \"#utility.yul\":4486:4615   */\n      swap2\n      swap1\n      pop\n      jump\t// out\n        /* \"#utility.yul\":4621:4929   */\n    tag_86:\n        /* \"#utility.yul\":4683:4687   */\n      0x00\n        /* \"#utility.yul\":4773:4791   */\n      0xffffffffffffffff\n        /* \"#utility.yul\":4765:4771   */\n      dup3\n        /* \"#utility.yul\":4762:4792   */\n      gt\n        /* \"#utility.yul\":4759:4815   */\n      iszero\n      tag_158\n      jumpi\n        /* \"#utility.yul\":4795:4813   */\n      tag_159\n      tag_83\n      jump\t// in\n    tag_159:\n        /* \"#utility.yul\":4759:4815   */\n    tag_158:\n        /* \"#utility.yul\":4833:4862   */\n      tag_160\n        /* \"#utility.yul\":4855:4861   */\n      dup3\n        /* \"#utility.yul\":4833:4862   */\n      tag_75\n      jump\t// in\n    tag_160:\n        /* \"#utility.yul\":4825:4862   */\n      swap1\n      pop\n        /* \"#utility.yul\":4917:4921   */\n      0x20\n        /* \"#utility.yul\":4911:4915   */\n      dup2\n        /* \"#utility.yul\":4907:4922   */\n      add\n        /* \"#utility.yul\":4899:4922   */\n      swap1\n      pop\n        /* \"#utility.yul\":4621:4929   */\n      swap2\n      swap1\n      pop\n      jump\t// out\n        /* \"#utility.yul\":4935:5083   */\n    tag_87:\n        /* \"#utility.yul\":5033:5039   */\n      dup3\n        /* \"#utility.yul\":5028:5031   */\n      dup2\n        /* \"#utility.yul\":5023:5026   */\n      dup4\n        /* \"#utility.yul\":5010:5040   */\n      calldatacopy\n        /* \"#utility.yul\":5074:5075   */\n      0x00\n        /* \"#utility.yul\":5065:5071   */\n      dup4\n        /* \"#utility.yul\":5060:5063   */\n      dup4\n        /* \"#utility.yul\":5056:5072   */\n      add\n        /* \"#utility.yul\":5049:5076   */\n      mstore\n        /* \"#utility.yul\":4935:5083   */\n      pop\n      pop\n      pop\n      jump\t// out\n        /* \"#utility.yul\":5089:5514   */\n    tag_88:\n        /* \"#utility.yul\":5167:5172   */\n      0x00\n        /* \"#utility.yul\":5192:5258   */\n      tag_163\n        /* \"#utility.yul\":5208:5257   */\n      tag_164\n        /* \"#utility.yul\":5250:5256   */\n      dup5\n        /* \"#utility.yul\":5208:5257   */\n      tag_86\n      jump\t// in\n    tag_164:\n        /* \"#utility.yul\":5192:5258   */\n      tag_85\n      jump\t// in\n    tag_163:\n        /* \"#utility.yul\":5183:5258   */\n      swap1\n      pop\n        /* \"#utility.yul\":5281:5287   */\n      dup3\n        /* \"#utility.yul\":5274:5279   */\n      dup2\n        /* \"#utility.yul\":5267:5288   */\n      mstore\n        /* \"#utility.yul\":5319:5323   */\n      0x20\n        /* \"#utility.yul\":5312:5317   */\n      dup2\n        /* \"#utility.yul\":5308:5324   */\n      add\n        /* \"#utility.yul\":5357:5360   */\n      dup5\n        /* \"#utility.yul\":5348:5354   */\n      dup5\n        /* \"#utility.yul\":5343:5346   */\n      dup5\n        /* \"#utility.yul\":5339:5355   */\n      add\n        /* \"#utility.yul\":5336:5361   */\n      gt\n        /* \"#utility.yul\":5333:5445   */\n      iszero\n      tag_165\n      jumpi\n        /* \"#utility.yul\":5364:5443   */\n      tag_166\n      tag_82\n      jump\t// in\n    tag_166:\n        /* \"#utility.yul\":5333:5445   */\n    tag_165:\n        /* \"#utility.yul\":5454:5508   */\n      tag_167\n        /* \"#utility.yul\":5501:5507   */\n      dup5\n        /* \"#utility.yul\":5496:5499   */\n      dup3\n        /* \"#utility.yul\":5491:5494   */\n      dup6\n        /* \"#utility.yul\":5454:5508   */\n      tag_87\n      jump\t// in\n    tag_167:\n        /* \"#utility.yul\":5173:5514   */\n      pop\n        /* \"#utility.yul\":5089:5514   */\n      swap4\n      swap3\n      pop\n      pop\n      pop\n      jump\t// out\n        /* \"#utility.yul\":5534:5874   */\n    tag_89:\n        /* \"#utility.yul\":5590:5595   */\n      0x00\n        /* \"#utility.yul\":5639:5642   */\n      dup3\n        /* \"#utility.yul\":5632:5636   */\n      0x1f\n        /* \"#utility.yul\":5624:5630   */\n      dup4\n        /* \"#utility.yul\":5620:5637   */\n      add\n        /* \"#utility.yul\":5616:5643   */\n      slt\n        /* \"#utility.yul\":5606:5728   */\n      tag_169\n      jumpi\n        /* \"#utility.yul\":5647:5726   */\n      tag_170\n      tag_81\n      jump\t// in\n    tag_170:\n        /* \"#utility.yul\":5606:5728   */\n    tag_169:\n        /* \"#utility.yul\":5764:5770   */\n      dup2\n        /* \"#utility.yul\":5751:5771   */\n      calldataload\n        /* \"#utility.yul\":5789:5868   */\n      tag_171\n        /* \"#utility.yul\":5864:5867   */\n      dup5\n        /* \"#utility.yul\":5856:5862   */\n      dup3\n        /* \"#utility.yul\":5849:5853   */\n      0x20\n        /* \"#utility.yul\":5841:5847   */\n      dup7\n        /* \"#utility.yul\":5837:5854   */\n      add\n        /* \"#utility.yul\":5789:5868   */\n      tag_88\n      jump\t// in\n    tag_171:\n        /* \"#utility.yul\":5780:5868   */\n      swap2\n      pop\n        /* \"#utility.yul\":5596:5874   */\n      pop\n        /* \"#utility.yul\":5534:5874   */\n      swap3\n      swap2\n      pop\n      pop\n      jump\t// out\n        /* \"#utility.yul\":5880:6859   */\n    tag_22:\n        /* \"#utility.yul\":5977:5983   */\n      0x00\n        /* \"#utility.yul\":5985:5991   */\n      dup1\n        /* \"#utility.yul\":5993:5999   */\n      0x00\n        /* \"#utility.yul\":6042:6044   */\n      0x60\n        /* \"#utility.yul\":6030:6039   */\n      dup5\n        /* \"#utility.yul\":6021:6028   */\n      dup7\n        /* \"#utility.yul\":6017:6040   */\n      sub\n        /* \"#utility.yul\":6013:6045   */\n      slt\n        /* \"#utility.yul\":6010:6129   */\n      iszero\n      tag_173\n      jumpi\n        /* \"#utility.yul\":6048:6127   */\n      tag_174\n      tag_67\n      jump\t// in\n    tag_174:\n        /* \"#utility.yul\":6010:6129   */\n    tag_173:\n        /* \"#utility.yul\":6168:6169   */\n      0x00\n        /* \"#utility.yul\":6193:6246   */\n      tag_175\n        /* \"#utility.yul\":6238:6245   */\n      dup7\n        /* \"#utility.yul\":6229:6235   */\n      dup3\n        /* \"#utility.yul\":6218:6227   */\n      dup8\n        /* \"#utility.yul\":6214:6236   */\n      add\n        /* \"#utility.yul\":6193:6246   */\n      tag_71\n      jump\t// in\n    tag_175:\n        /* \"#utility.yul\":6183:6246   */\n      swap4\n      pop\n        /* \"#utility.yul\":6139:6256   */\n      pop\n        /* \"#utility.yul\":6323:6325   */\n      0x20\n        /* \"#utility.yul\":6312:6321   */\n      dup5\n        /* \"#utility.yul\":6308:6326   */\n      add\n        /* \"#utility.yul\":6295:6327   */\n      calldataload\n        /* \"#utility.yul\":6354:6372   */\n      0xffffffffffffffff\n        /* \"#utility.yul\":6346:6352   */\n      dup2\n        /* \"#utility.yul\":6343:6373   */\n      gt\n        /* \"#utility.yul\":6340:6457   */\n      iszero\n      tag_176\n      jumpi\n        /* \"#utility.yul\":6376:6455   */\n      tag_177\n      tag_68\n      jump\t// in\n    tag_177:\n        /* \"#utility.yul\":6340:6457   */\n    tag_176:\n        /* \"#utility.yul\":6481:6544   */\n      tag_178\n        /* \"#utility.yul\":6536:6543   */\n      dup7\n        /* \"#utility.yul\":6527:6533   */\n      dup3\n        /* \"#utility.yul\":6516:6525   */\n      dup8\n        /* \"#utility.yul\":6512:6534   */\n      add\n        /* \"#utility.yul\":6481:6544   */\n      tag_89\n      jump\t// in\n    tag_178:\n        /* \"#utility.yul\":6471:6544   */\n      swap3\n      pop\n        /* \"#utility.yul\":6266:6554   */\n      pop\n        /* \"#utility.yul\":6621:6623   */\n      0x40\n        /* \"#utility.yul\":6610:6619   */\n      dup5\n        /* \"#utility.yul\":6606:6624   */\n      add\n        /* \"#utility.yul\":6593:6625   */\n      calldataload\n        /* \"#utility.yul\":6652:6670   */\n      0xffffffffffffffff\n        /* \"#utility.yul\":6644:6650   */\n      dup2\n        /* \"#utility.yul\":6641:6671   */\n      gt\n        /* \"#utility.yul\":6638:6755   */\n      iszero\n      tag_179\n      jumpi\n        /* \"#utility.yul\":6674:6753   */\n      tag_180\n      tag_68\n      jump\t// in\n    tag_180:\n        /* \"#utility.yul\":6638:6755   */\n    tag_179:\n        /* \"#utility.yul\":6779:6842   */\n      tag_181\n        /* \"#utility.yul\":6834:6841   */\n      dup7\n        /* \"#utility.yul\":6825:6831   */\n      dup3\n        /* \"#utility.yul\":6814:6823   */\n      dup8\n        /* \"#utility.yul\":6810:6832   */\n      add\n        /* \"#utility.yul\":6779:6842   */\n      tag_89\n      jump\t// in\n    tag_181:\n        /* \"#utility.yul\":6769:6842   */\n      swap2\n      pop\n        /* \"#utility.yul\":6564:6852   */\n      pop\n        /* \"#utility.yul\":5880:6859   */\n      swap3\n      pop\n      swap3\n      pop\n      swap3\n      jump\t// out\n        /* \"#utility.yul\":6865:7045   */\n    tag_90:\n        /* \"#utility.yul\":6913:6990   */\n      0x4e487b7100000000000000000000000000000000000000000000000000000000\n        /* \"#utility.yul\":6910:6911   */\n      0x00\n        /* \"#utility.yul\":6903:6991   */\n      mstore\n        /* \"#utility.yul\":7010:7014   */\n      0x22\n        /* \"#utility.yul\":7007:7008   */\n      0x04\n        /* \"#utility.yul\":7000:7015   */\n      mstore\n        /* \"#utility.yul\":7034:7038   */\n      0x24\n        /* \"#utility.yul\":7031:7032   */\n      0x00\n        /* \"#utility.yul\":7024:7039   */\n      revert\n        /* \"#utility.yul\":7051:7371   */\n    tag_32:\n        /* \"#utility.yul\":7095:7101   */\n      0x00\n        /* \"#utility.yul\":7132:7133   */\n      0x02\n        /* \"#utility.yul\":7126:7130   */\n      dup3\n        /* \"#utility.yul\":7122:7134   */\n      div\n        /* \"#utility.yul\":7112:7134   */\n      swap1\n      pop\n        /* \"#utility.yul\":7179:7180   */\n      0x01\n        /* \"#utility.yul\":7173:7177   */\n      dup3\n        /* \"#utility.yul\":7169:7181   */\n      and\n        /* \"#utility.yul\":7200:7218   */\n      dup1\n        /* \"#utility.yul\":7190:7271   */\n      tag_184\n      jumpi\n        /* \"#utility.yul\":7256:7260   */\n      0x7f\n        /* \"#utility.yul\":7248:7254   */\n      dup3\n        /* \"#utility.yul\":7244:7261   */\n      and\n        /* \"#utility.yul\":7234:7261   */\n      swap2\n      pop\n        /* \"#utility.yul\":7190:7271   */\n    tag_184:\n        /* \"#utility.yul\":7318:7320   */\n      0x20\n        /* \"#utility.yul\":7310:7316   */\n      dup3\n        /* \"#utility.yul\":7307:7321   */\n      lt\n        /* \"#utility.yul\":7287:7305   */\n      dup2\n        /* \"#utility.yul\":7284:7322   */\n      sub\n        /* \"#utility.yul\":7281:7365   */\n      tag_185\n      jumpi\n        /* \"#utility.yul\":7337:7355   */\n      tag_186\n      tag_90\n      jump\t// in\n    tag_186:\n        /* \"#utility.yul\":7281:7365   */\n    tag_185:\n        /* \"#utility.yul\":7102:7371   */\n      pop\n        /* \"#utility.yul\":7051:7371   */\n      swap2\n      swap1\n      pop\n      jump\t// out\n        /* \"#utility.yul\":7377:7518   */\n    tag_91:\n        /* \"#utility.yul\":7426:7430   */\n      0x00\n        /* \"#utility.yul\":7449:7452   */\n      dup2\n        /* \"#utility.yul\":7441:7452   */\n      swap1\n      pop\n        /* \"#utility.yul\":7472:7475   */\n      dup2\n        /* \"#utility.yul\":7469:7470   */\n      0x00\n        /* \"#utility.yul\":7462:7476   */\n      mstore\n        /* \"#utility.yul\":7506:7510   */\n      0x20\n        /* \"#utility.yul\":7503:7504   */\n      0x00\n        /* \"#utility.yul\":7493:7511   */\n      keccak256\n        /* \"#utility.yul\":7485:7511   */\n      swap1\n      pop\n        /* \"#utility.yul\":7377:7518   */\n      swap2\n      swap1\n      pop\n      jump\t// out\n        /* \"#utility.yul\":7524:7617   */\n    tag_92:\n        /* \"#utility.yul\":7561:7567   */\n      0x00\n        /* \"#utility.yul\":7608:7610   */\n      0x20\n        /* \"#utility.yul\":7603:7605   */\n      0x1f\n        /* \"#utility.yul\":7596:7601   */\n      dup4\n        /* \"#utility.yul\":7592:7606   */\n      add\n        /* \"#utility.yul\":7588:7611   */\n      div\n        /* \"#utility.yul\":7578:7611   */\n      swap1\n      pop\n        /* \"#utility.yul\":7524:7617   */\n      swap2\n      swap1\n      pop\n      jump\t// out\n        /* \"#utility.yul\":7623:7730   */\n    tag_93:\n        /* \"#utility.yul\":7667:7675   */\n      0x00\n        /* \"#utility.yul\":7717:7722   */\n      dup3\n        /* \"#utility.yul\":7711:7715   */\n      dup3\n        /* \"#utility.yul\":7707:7723   */\n      shl\n        /* \"#utility.yul\":7686:7723   */\n      swap1\n      pop\n        /* \"#utility.yul\":7623:7730   */\n      swap3\n      swap2\n      pop\n      pop\n      jump\t// out\n        /* \"#utility.yul\":7736:8129   */\n    tag_94:\n        /* \"#utility.yul\":7805:7811   */\n      0x00\n        /* \"#utility.yul\":7855:7856   */\n      0x08\n        /* \"#utility.yul\":7843:7853   */\n      dup4\n        /* \"#utility.yul\":7839:7857   */\n      mul\n        /* \"#utility.yul\":7878:7975   */\n      tag_191\n        /* \"#utility.yul\":7908:7974   */\n      0xffffffffffffffffffffffffffffffffffffffffffffffffffffffffffffffff\n        /* \"#utility.yul\":7897:7906   */\n      dup3\n        /* \"#utility.yul\":7878:7975   */\n      tag_93\n      jump\t// in\n    tag_191:\n        /* \"#utility.yul\":7996:8035   */\n      tag_192\n        /* \"#utility.yul\":8026:8034   */\n      dup7\n        /* \"#utility.yul\":8015:8024   */\n      dup4\n        /* \"#utility.yul\":7996:8035   */\n      tag_93\n      jump\t// in\n    tag_192:\n        /* \"#utility.yul\":7984:8035   */\n      swap6\n      pop\n        /* \"#utility.yul\":8068:8072   */\n      dup1\n        /* \"#utility.yul\":8064:8073   */\n      not\n        /* \"#utility.yul\":8057:8062   */\n      dup5\n        /* \"#utility.yul\":8053:8074   */\n      and\n        /* \"#utility.yul\":8044:8074   */\n      swap4\n      pop\n        /* \"#utility.yul\":8117:8121   */\n      dup1\n        /* \"#utility.yul\":8107:8115   */\n      dup7\n        /* \"#utility.yul\":8103:8122   */\n      and\n        /* \"#utility.yul\":8096:8101   */\n      dup5\n        /* \"#utility.yul\":8093:8123   */\n      or\n        /* \"#utility.yul\":8083:8123   */\n      swap3\n      pop\n        /* \"#utility.yul\":7812:8129   */\n      pop\n      pop\n        /* \"#utility.yul\":7736:8129   */\n      swap4\n      swap3\n      pop\n      pop\n      pop\n      jump\t// out\n        /* \"#utility.yul\":8135:8195   */\n    tag_95:\n        /* \"#utility.yul\":8163:8166   */\n      0x00\n        /* \"#utility.yul\":8184:8189   */\n      dup2\n        /* \"#utility.yul\":8177:8189   */\n      swap1\n      pop\n        /* \"#utility.yul\":8135:8195   */\n      swap2\n      swap1\n      pop\n      jump\t// out\n        /* \"#utility.yul\":8201:8343   */\n    tag_96:\n        /* \"#utility.yul\":8251:8260   */\n      0x00\n        /* \"#utility.yul\":8284:8337   */\n      tag_195\n        /* \"#utility.yul\":8302:8336   */\n      tag_196\n        /* \"#utility.yul\":8311:8335   */\n      tag_197\n        /* \"#utility.yul\":8329:8334   */\n      dup5\n        /* \"#utility.yul\":8311:8335   */\n      tag_69\n      jump\t// in\n    tag_197:\n        /* \"#utility.yul\":8302:8336   */\n      tag_95\n      jump\t// in\n    tag_196:\n        /* \"#utility.yul\":8284:8337   */\n      tag_69\n      jump\t// in\n    tag_195:\n        /* \"#utility.yul\":8271:8337   */\n      swap1\n      pop\n        /* \"#utility.yul\":8201:8343   */\n      swap2\n      swap1\n      pop\n      jump\t// out\n        /* \"#utility.yul\":8349:8424   */\n    tag_97:\n        /* \"#utility.yul\":8392:8395   */\n      0x00\n        /* \"#utility.yul\":8413:8418   */\n      dup2\n        /* \"#utility.yul\":8406:8418   */\n      swap1\n      pop\n        /* \"#utility.yul\":8349:8424   */\n      swap2\n      swap1\n      pop\n      jump\t// out\n        /* \"#utility.yul\":8430:8699   */\n    tag_98:\n        /* \"#utility.yul\":8540:8579   */\n      tag_200\n        /* \"#utility.yul\":8571:8578   */\n      dup4\n        /* \"#utility.yul\":8540:8579   */\n      tag_96\n      jump\t// in\n    tag_200:\n        /* \"#utility.yul\":8601:8692   */\n      tag_201\n        /* \"#utility.yul\":8650:8691   */\n      tag_202\n        /* \"#utility.yul\":8674:8690   */\n      dup3\n        /* \"#utility.yul\":8650:8691   */\n      tag_97\n      jump\t// in\n    tag_202:\n        /* \"#utility.yul\":8642:8648   */\n      dup5\n        /* \"#utility.yul\":8635:8639   */\n      dup5\n        /* \"#utility.yul\":8629:8640   */\n      sload\n        /* \"#utility.yul\":8601:8692   */\n      tag_94\n      jump\t// in\n    tag_201:\n        /* \"#utility.yul\":8595:8599   */\n      dup3\n        /* \"#utility.yul\":8588:8693   */\n      sstore\n        /* \"#utility.yul\":8506:8699   */\n      pop\n        /* \"#utility.yul\":8430:8699   */\n      pop\n      pop\n      pop\n      jump\t// out\n        /* \"#utility.yul\":8705:8778   */\n    tag_99:\n        /* \"#utility.yul\":8750:8753   */\n      0x00\n        /* \"#utility.yul\":8705:8778   */\n      swap1\n      jump\t// out\n        /* \"#utility.yul\":8784:8973   */\n    tag_100:\n        /* \"#utility.yul\":8861:8893   */\n      tag_205\n      tag_99\n      jump\t// in\n    tag_205:\n        /* \"#utility.yul\":8902:8967   */\n      tag_206\n        /* \"#utility.yul\":8960:8966   */\n      dup2\n        /* \"#utility.yul\":8952:8958   */\n      dup5\n        /* \"#utility.yul\":8946:8950   */\n      dup5\n        /* \"#utility.yul\":8902:8967   */\n      tag_98\n      jump\t// in\n    tag_206:\n        /* \"#utility.yul\":8837:8973   */\n      pop\n        /* \"#utility.yul\":8784:8973   */\n      pop\n      pop\n      jump\t// out\n        /* \"#utility.yul\":8979:9165   */\n    tag_101:\n        /* \"#utility.yul\":9039:9159   */\n    tag_208:\n        /* \"#utility.yul\":9056:9059   */\n      dup2\n        /* \"#utility.yul\":9049:9054   */\n      dup2\n        /* \"#utility.yul\":9046:9060   */\n      lt\n        /* \"#utility.yul\":9039:9159   */\n      iszero\n      tag_210\n      jumpi\n        /* \"#utility.yul\":9110:9149   */\n      tag_211\n        /* \"#utility.yul\":9147:9148   */\n      0x00\n        /* \"#utility.yul\":9140:9145   */\n      dup3\n        /* \"#utility.yul\":9110:9149   */\n      tag_100\n      jump\t// in\n    tag_211:\n        /* \"#utility.yul\":9083:9084   */\n      0x01\n        /* \"#utility.yul\":9076:9081   */\n      dup2\n        /* \"#utility.yul\":9072:9085   */\n      add\n        /* \"#utility.yul\":9063:9085   */\n      swap1\n      pop\n        /* \"#utility.yul\":9039:9159   */\n      jump(tag_208)\n    tag_210:\n        /* \"#utility.yul\":8979:9165   */\n      pop\n      pop\n      jump\t// out\n        /* \"#utility.yul\":9171:9714   */\n    tag_102:\n        /* \"#utility.yul\":9272:9274   */\n      0x1f\n        /* \"#utility.yul\":9267:9270   */\n      dup3\n        /* \"#utility.yul\":9264:9275   */\n      gt\n        /* \"#utility.yul\":9261:9707   */\n      iszero\n      tag_213\n      jumpi\n        /* \"#utility.yul\":9306:9344   */\n      tag_214\n        /* \"#utility.yul\":9338:9343   */\n      dup2\n        /* \"#utility.yul\":9306:9344   */\n      tag_91\n      jump\t// in\n    tag_214:\n        /* \"#utility.yul\":9390:9419   */\n      tag_215\n        /* \"#utility.yul\":9408:9418   */\n      dup5\n        /* \"#utility.yul\":9390:9419   */\n      tag_92\n      jump\t// in\n    tag_215:\n        /* \"#utility.yul\":9380:9388   */\n      dup2\n        /* \"#utility.yul\":9376:9420   */\n      add\n        /* \"#utility.yul\":9573:9575   */\n      0x20\n        /* \"#utility.yul\":9561:9571   */\n      dup6\n        /* \"#utility.yul\":9558:9576   */\n      lt\n        /* \"#utility.yul\":9555:9604   */\n      iszero\n      tag_216\n      jumpi\n        /* \"#utility.yul\":9594:9602   */\n      dup2\n        /* \"#utility.yul\":9579:9602   */\n      swap1\n      pop\n        /* \"#utility.yul\":9555:9604   */\n    tag_216:\n        /* \"#utility.yul\":9617:9697   */\n      tag_217\n        /* \"#utility.yul\":9673:9695   */\n      tag_218\n        /* \"#utility.yul\":9691:9694   */\n      dup6\n        /* \"#utility.yul\":9673:9695   */\n      tag_92\n      jump\t// in\n    tag_218:\n        /* \"#utility.yul\":9663:9671   */\n      dup4\n        /* \"#utility.yul\":9659:9696   */\n      add\n        /* \"#utility.yul\":9646:9657   */\n      dup3\n        /* \"#utility.yul\":9617:9697   */\n      tag_101\n      jump\t// in\n    tag_217:\n        /* \"#utility.yul\":9276:9707   */\n      pop\n      pop\n        /* \"#utility.yul\":9261:9707   */\n    tag_213:\n        /* \"#utility.yul\":9171:9714   */\n      pop\n      pop\n      pop\n      jump\t// out\n        /* \"#utility.yul\":9720:9837   */\n    tag_103:\n        /* \"#utility.yul\":9774:9782   */\n      0x00\n        /* \"#utility.yul\":9824:9829   */\n      dup3\n        /* \"#utility.yul\":9818:9822   */\n      dup3\n        /* \"#utility.yul\":9814:9830   */\n      shr\n        /* \"#utility.yul\":9793:9830   */\n      swap1\n      pop\n        /* \"#utility.yul\":9720:9837   */\n      swap3\n      swap2\n      pop\n      pop\n      jump\t// out\n        /* \"#utility.yul\":9843:10012   */\n    tag_104:\n        /* \"#utility.yul\":9887:9893   */\n      0x00\n        /* \"#utility.yul\":9920:9971   */\n      tag_221\n        /* \"#utility.yul\":9968:9969   */\n      0x00\n        /* \"#utility.yul\":9964:9970   */\n      not\n        /* \"#utility.yul\":9956:9961   */\n      dup5\n        /* \"#utility.yul\":9953:9954   */\n      0x08\n        /* \"#utility.yul\":9949:9962   */\n      mul\n        /* \"#utility.yul\":9920:9971   */\n      tag_103\n      jump\t// in\n    tag_221:\n        /* \"#utility.yul\":9916:9972   */\n      not\n        /* \"#utility.yul\":10001:10005   */\n      dup1\n        /* \"#utility.yul\":9995:9999   */\n      dup4\n        /* \"#utility.yul\":9991:10006   */\n      and\n        /* \"#utility.yul\":9981:10006   */\n      swap2\n      pop\n        /* \"#utility.yul\":9894:10012   */\n      pop\n        /* \"#utility.yul\":9843:10012   */\n      swap3\n      swap2\n      pop\n      pop\n      jump\t// out\n        /* \"#utility.yul\":10017:10312   */\n    tag_105:\n        /* \"#utility.yul\":10093:10097   */\n      0x00\n        /* \"#utility.yul\":10239:10268   */\n      tag_223\n        /* \"#utility.yul\":10264:10267   */\n      dup4\n        /* \"#utility.yul\":10258:10262   */\n      dup4\n        /* \"#utility.yul\":10239:10268   */\n      tag_104\n      jump\t// in\n    tag_223:\n        /* \"#utility.yul\":10231:10268   */\n      swap2\n      pop\n        /* \"#utility.yul\":10301:10304   */\n      dup3\n        /* \"#utility.yul\":10298:10299   */\n      0x02\n        /* \"#utility.yul\":10294:10305   */\n      mul\n        /* \"#utility.yul\":10288:10292   */\n      dup3\n        /* \"#utility.yul\":10285:10306   */\n      or\n        /* \"#utility.yul\":10277:10306   */\n      swap1\n      pop\n        /* \"#utility.yul\":10017:10312   */\n      swap3\n      swap2\n      pop\n      pop\n      jump\t// out\n        /* \"#utility.yul\":10317:11712   */\n    tag_49:\n        /* \"#utility.yul\":10434:10471   */\n      tag_225\n        /* \"#utility.yul\":10467:10470   */\n      dup3\n        /* \"#utility.yul\":10434:10471   */\n      tag_72\n      jump\t// in\n    tag_225:\n        /* \"#utility.yul\":10536:10554   */\n      0xffffffffffffffff\n        /* \"#utility.yul\":10528:10534   */\n      dup2\n        /* \"#utility.yul\":10525:10555   */\n      gt\n        /* \"#utility.yul\":10522:10578   */\n      iszero\n      tag_226\n      jumpi\n        /* \"#utility.yul\":10558:10576   */\n      tag_227\n      tag_83\n      jump\t// in\n    tag_227:\n        /* \"#utility.yul\":10522:10578   */\n    tag_226:\n        /* \"#utility.yul\":10602:10640   */\n      tag_228\n        /* \"#utility.yul\":10634:10638   */\n      dup3\n        /* \"#utility.yul\":10628:10639   */\n      sload\n        /* \"#utility.yul\":10602:10640   */\n      tag_32\n      jump\t// in\n    tag_228:\n        /* \"#utility.yul\":10687:10754   */\n      tag_229\n        /* \"#utility.yul\":10747:10753   */\n      dup3\n        /* \"#utility.yul\":10739:10745   */\n      dup3\n        /* \"#utility.yul\":10733:10737   */\n      dup6\n        /* \"#utility.yul\":10687:10754   */\n      tag_102\n      jump\t// in\n    tag_229:\n        /* \"#utility.yul\":10781:10782   */\n      0x00\n        /* \"#utility.yul\":10805:10809   */\n      0x20\n        /* \"#utility.yul\":10792:10809   */\n      swap1\n      pop\n        /* \"#utility.yul\":10837:10839   */\n      0x1f\n        /* \"#utility.yul\":10829:10835   */\n      dup4\n        /* \"#utility.yul\":10826:10840   */\n      gt\n        /* \"#utility.yul\":10854:10855   */\n      0x01\n        /* \"#utility.yul\":10849:11467   */\n      dup2\n      eq\n      tag_231\n      jumpi\n        /* \"#utility.yul\":11511:11512   */\n      0x00\n        /* \"#utility.yul\":11528:11534   */\n      dup5\n        /* \"#utility.yul\":11525:11602   */\n      iszero\n      tag_232\n      jumpi\n        /* \"#utility.yul\":11577:11586   */\n      dup3\n        /* \"#utility.yul\":11572:11575   */\n      dup8\n        /* \"#utility.yul\":11568:11587   */\n      add\n        /* \"#utility.yul\":11562:11588   */\n      mload\n        /* \"#utility.yul\":11553:11588   */\n      swap1\n      pop\n        /* \"#utility.yul\":11525:11602   */\n    tag_232:\n        /* \"#utility.yul\":11628:11695   */\n      tag_233\n        /* \"#utility.yul\":11688:11694   */\n      dup6\n        /* \"#utility.yul\":11681:11686   */\n      dup3\n        /* \"#utility.yul\":11628:11695   */\n      tag_105\n      jump\t// in\n    tag_233:\n        /* \"#utility.yul\":11622:11626   */\n      dup7\n        /* \"#utility.yul\":11615:11696   */\n      sstore\n        /* \"#utility.yul\":11484:11706   */\n      pop\n        /* \"#utility.yul\":10819:11706   */\n      jump(tag_230)\n        /* \"#utility.yul\":10849:11467   */\n    tag_231:\n        /* \"#utility.yul\":10901:10905   */\n      0x1f\n        /* \"#utility.yul\":10897:10906   */\n      not\n        /* \"#utility.yul\":10889:10895   */\n      dup5\n        /* \"#utility.yul\":10885:10907   */\n      and\n        /* \"#utility.yul\":10935:10972   */\n      tag_234\n        /* \"#utility.yul\":10967:10971   */\n      dup7\n        /* \"#utility.yul\":10935:10972   */\n      tag_91\n      jump\t// in\n    tag_234:\n        /* \"#utility.yul\":10994:10995   */\n      0x00\n        /* \"#utility.yul\":11008:11216   */\n    tag_235:\n        /* \"#utility.yul\":11022:11029   */\n      dup3\n        /* \"#utility.yul\":11019:11020   */\n      dup2\n        /* \"#utility.yul\":11016:11030   */\n      lt\n        /* \"#utility.yul\":11008:11216   */\n      iszero\n      tag_237\n      jumpi\n        /* \"#utility.yul\":11101:11110   */\n      dup5\n        /* \"#utility.yul\":11096:11099   */\n      dup10\n        /* \"#utility.yul\":11092:11111   */\n      add\n        /* \"#utility.yul\":11086:11112   */\n      mload\n        /* \"#utility.yul\":11078:11084   */\n      dup3\n        /* \"#utility.yul\":11071:11113   */\n      sstore\n        /* \"#utility.yul\":11152:11153   */\n      0x01\n        /* \"#utility.yul\":11144:11150   */\n      dup3\n        /* \"#utility.yul\":11140:11154   */\n      add\n        /* \"#utility.yul\":11130:11154   */\n      swap2\n      pop\n        /* \"#utility.yul\":11199:11201   */\n      0x20\n        /* \"#utility.yul\":11188:11197   */\n      dup6\n        /* \"#utility.yul\":11184:11202   */\n      add\n        /* \"#utility.yul\":11171:11202   */\n      swap5\n      pop\n        /* \"#utility.yul\":11045:11049   */\n      0x20\n        /* \"#utility.yul\":11042:11043   */\n      dup2\n        /* \"#utility.yul\":11038:11050   */\n      add\n        /* \"#utility.yul\":11033:11050   */\n      swap1\n      pop\n        /* \"#utility.yul\":11008:11216   */\n      jump(tag_235)\n    tag_237:\n        /* \"#utility.yul\":11244:11250   */\n      dup7\n        /* \"#utility.yul\":11235:11242   */\n      dup4\n        /* \"#utility.yul\":11232:11251   */\n      lt\n        /* \"#utility.yul\":11229:11408   */\n      iszero\n      tag_238\n      jumpi\n        /* \"#utility.yul\":11302:11311   */\n      dup5\n        /* \"#utility.yul\":11297:11300   */\n      dup10\n        /* \"#utility.yul\":11293:11312   */\n      add\n        /* \"#utility.yul\":11287:11313   */\n      mload\n        /* \"#utility.yul\":11345:11393   */\n      tag_239\n        /* \"#utility.yul\":11387:11391   */\n      0x1f\n        /* \"#utility.yul\":11379:11385   */\n      dup10\n        /* \"#utility.yul\":11375:11392   */\n      and\n        /* \"#utility.yul\":11364:11373   */\n      dup3\n        /* \"#utility.yul\":11345:11393   */\n      tag_104\n      jump\t// in\n    tag_239:\n        /* \"#utility.yul\":11337:11343   */\n      dup4\n        /* \"#utility.yul\":11330:11394   */\n      sstore\n        /* \"#utility.yul\":11252:11408   */\n      pop\n        /* \"#utility.yul\":11229:11408   */\n    tag_238:\n        /* \"#utility.yul\":11454:11455   */\n      0x01\n        /* \"#utility.yul\":11450:11451   */\n      0x02\n        /* \"#utility.yul\":11442:11448   */\n      dup9\n        /* \"#utility.yul\":11438:11452   */\n      mul\n        /* \"#utility.yul\":11434:11456   */\n      add\n        /* \"#utility.yul\":11428:11432   */\n      dup9\n        /* \"#utility.yul\":11421:11457   */\n      sstore\n        /* \"#utility.yul\":10856:11467   */\n      pop\n      pop\n      pop\n        /* \"#utility.yul\":10819:11706   */\n    tag_230:\n      pop\n        /* \"#utility.yul\":10409:11712   */\n      pop\n      pop\n      pop\n        /* \"#utility.yul\":10317:11712   */\n      pop\n      pop\n      jump\t// out\n\n    auxdata: 0xa26469706673582212206a0495eb0335c8af892e58177be517546bda76940ff7d5e04f6cded54d592bb164736f6c634300081a0033\n}\n",
				"bytecode": {
					"linkReferences": {},
					"object": "608060405234801561000f575f80fd5b506040518060400160405280600781526020017f7377617374696b000000000000000000000000000000000000000000000000008152505f80600181526020019081526020015f209081610063919061034b565b506040518060400160405280600881526020017f73756268616d61790000000000000000000000000000000000000000000000008152505f80600281526020019081526020015f2090816100b7919061034b565b506040518060400160405280600b81526020017f207375626872616e65656c0000000000000000000000000000000000000000008152505f80600381526020019081526020015f20908161010b919061034b565b5061041a565b5f81519050919050565b7f4e487b71000000000000000000000000000000000000000000000000000000005f52604160045260245ffd5b7f4e487b71000000000000000000000000000000000000000000000000000000005f52602260045260245ffd5b5f600282049050600182168061018c57607f821691505b60208210810361019f5761019e610148565b5b50919050565b5f819050815f5260205f209050919050565b5f6020601f8301049050919050565b5f82821b905092915050565b5f600883026102017fffffffffffffffffffffffffffffffffffffffffffffffffffffffffffffffff826101c6565b61020b86836101c6565b95508019841693508086168417925050509392505050565b5f819050919050565b5f819050919050565b5f61024f61024a61024584610223565b61022c565b610223565b9050919050565b5f819050919050565b61026883610235565b61027c61027482610256565b8484546101d2565b825550505050565b5f90565b610290610284565b61029b81848461025f565b505050565b5b818110156102be576102b35f82610288565b6001810190506102a1565b5050565b601f821115610303576102d4816101a5565b6102dd846101b7565b810160208510156102ec578190505b6103006102f8856101b7565b8301826102a0565b50505b505050565b5f82821c905092915050565b5f6103235f1984600802610308565b1980831691505092915050565b5f61033b8383610314565b9150826002028217905092915050565b61035482610111565b67ffffffffffffffff81111561036d5761036c61011b565b5b6103778254610175565b6103828282856102c2565b5f60209050601f8311600181146103b3575f84156103a1578287015190505b6103ab8582610330565b865550610412565b601f1984166103c1866101a5565b5f5b828110156103e8578489015182556001820191506020850194506020810190506103c3565b868310156104055784890151610401601f891682610314565b8355505b6001600288020188555050505b505050505050565b610bdc806104275f395ff3fe608060405234801561000f575f80fd5b5060043610610054575f3560e01c8062ad800c1461005857806327d3553f1461008857806351f9ba95146100b957806368744046146100d55780638084d8e514610106575b5f80fd5b610072600480360381019061006d91906105a1565b610122565b60405161007f919061063c565b60405180910390f35b6100a2600480360381019061009d91906106b6565b6101bc565b6040516100b09291906106f4565b60405180910390f35b6100d360048036038101906100ce9190610855565b6102f3565b005b6100ef60048036038101906100ea91906105a1565b61034b565b6040516100fd9291906106f4565b60405180910390f35b610120600480360381019061011b9190610855565b610477565b005b5f602052805f5260405f205f91509050805461013d9061090a565b80601f01602080910402602001604051908101604052809291908181526020018280546101699061090a565b80156101b45780601f1061018b576101008083540402835291602001916101b4565b820191905f5260205f20905b81548152906001019060200180831161019757829003601f168201915b505050505081565b6002602052815f5260405f20602052805f5260405f205f9150915050805f0180546101e69061090a565b80601f01602080910402602001604051908101604052809291908181526020018280546102129061090a565b801561025d5780601f106102345761010080835404028352916020019161025d565b820191905f5260205f20905b81548152906001019060200180831161024057829003601f168201915b5050505050908060010180546102729061090a565b80601f016020809104026020016040519081016040528092919081815260200182805461029e9061090a565b80156102e95780601f106102c0576101008083540402835291602001916102e9565b820191905f5260205f20905b8154815290600101906020018083116102cc57829003601f168201915b5050505050905082565b60405180604001604052808381526020018281525060015f8581526020019081526020015f205f820151815f01908161032c9190610ad7565b5060208201518160010190816103429190610ad7565b50905050505050565b6001602052805f5260405f205f91509050805f01805461036a9061090a565b80601f01602080910402602001604051908101604052809291908181526020018280546103969061090a565b80156103e15780601f106103b8576101008083540402835291602001916103e1565b820191905f5260205f20905b8154815290600101906020018083116103c457829003601f168201915b5050505050908060010180546103f69061090a565b80601f01602080910402602001604051908101604052809291908181526020018280546104229061090a565b801561046d5780601f106104445761010080835404028352916020019161046d565b820191905f5260205f20905b81548152906001019060200180831161045057829003601f168201915b5050505050905082565b60405180604001604052808381526020018281525060015f8581526020019081526020015f205f820151815f0190816104b09190610ad7565b5060208201518160010190816104c69190610ad7565b5090505060405180604001604052808381526020018281525060025f3373ffffffffffffffffffffffffffffffffffffffff1673ffffffffffffffffffffffffffffffffffffffff1681526020019081526020015f205f8581526020019081526020015f205f820151815f01908161053e9190610ad7565b5060208201518160010190816105549190610ad7565b50905050505050565b5f604051905090565b5f80fd5b5f80fd5b5f819050919050565b6105808161056e565b811461058a575f80fd5b50565b5f8135905061059b81610577565b92915050565b5f602082840312156105b6576105b5610566565b5b5f6105c38482850161058d565b91505092915050565b5f81519050919050565b5f82825260208201905092915050565b8281835e5f83830152505050565b5f601f19601f8301169050919050565b5f61060e826105cc565b61061881856105d6565b93506106288185602086016105e6565b610631816105f4565b840191505092915050565b5f6020820190508181035f8301526106548184610604565b905092915050565b5f73ffffffffffffffffffffffffffffffffffffffff82169050919050565b5f6106858261065c565b9050919050565b6106958161067b565b811461069f575f80fd5b50565b5f813590506106b08161068c565b92915050565b5f80604083850312156106cc576106cb610566565b5b5f6106d9858286016106a2565b92505060206106ea8582860161058d565b9150509250929050565b5f6040820190508181035f83015261070c8185610604565b905081810360208301526107208184610604565b90509392505050565b5f80fd5b5f80fd5b7f4e487b71000000000000000000000000000000000000000000000000000000005f52604160045260245ffd5b610767826105f4565b810181811067ffffffffffffffff8211171561078657610785610731565b5b80604052505050565b5f61079861055d565b90506107a4828261075e565b919050565b5f67ffffffffffffffff8211156107c3576107c2610731565b5b6107cc826105f4565b9050602081019050919050565b828183375f83830152505050565b5f6107f96107f4846107a9565b61078f565b9050828152602081018484840111156108155761081461072d565b5b6108208482856107d9565b509392505050565b5f82601f83011261083c5761083b610729565b5b813561084c8482602086016107e7565b91505092915050565b5f805f6060848603121561086c5761086b610566565b5b5f6108798682870161058d565b935050602084013567ffffffffffffffff81111561089a5761089961056a565b5b6108a686828701610828565b925050604084013567ffffffffffffffff8111156108c7576108c661056a565b5b6108d386828701610828565b9150509250925092565b7f4e487b71000000000000000000000000000000000000000000000000000000005f52602260045260245ffd5b5f600282049050600182168061092157607f821691505b602082108103610934576109336108dd565b5b50919050565b5f819050815f5260205f209050919050565b5f6020601f8301049050919050565b5f82821b905092915050565b5f600883026109967fffffffffffffffffffffffffffffffffffffffffffffffffffffffffffffffff8261095b565b6109a0868361095b565b95508019841693508086168417925050509392505050565b5f819050919050565b5f6109db6109d66109d18461056e565b6109b8565b61056e565b9050919050565b5f819050919050565b6109f4836109c1565b610a08610a00826109e2565b848454610967565b825550505050565b5f90565b610a1c610a10565b610a278184846109eb565b505050565b5b81811015610a4a57610a3f5f82610a14565b600181019050610a2d565b5050565b601f821115610a8f57610a608161093a565b610a698461094c565b81016020851015610a78578190505b610a8c610a848561094c565b830182610a2c565b50505b505050565b5f82821c905092915050565b5f610aaf5f1984600802610a94565b1980831691505092915050565b5f610ac78383610aa0565b9150826002028217905092915050565b610ae0826105cc565b67ffffffffffffffff811115610af957610af8610731565b5b610b03825461090a565b610b0e828285610a4e565b5f60209050601f831160018114610b3f575f8415610b2d578287015190505b610b378582610abc565b865550610b9e565b601f198416610b4d8661093a565b5f5b82811015610b7457848901518255600182019150602085019450602081019050610b4f565b86831015610b915784890151610b8d601f891682610aa0565b8355505b6001600288020188555050505b50505050505056fea26469706673582212206a0495eb0335c8af892e58177be517546bda76940ff7d5e04f6cded54d592bb164736f6c634300081a0033",
					"opcodes": "PUSH1 0x80 PUSH1 0x40 MSTORE CALLVALUE DUP1 ISZERO PUSH2 0xF JUMPI PUSH0 DUP1 REVERT JUMPDEST POP PUSH1 0x40 MLOAD DUP1 PUSH1 0x40 ADD PUSH1 0x40 MSTORE DUP1 PUSH1 0x7 DUP2 MSTORE PUSH1 0x20 ADD PUSH32 0x7377617374696B00000000000000000000000000000000000000000000000000 DUP2 MSTORE POP PUSH0 DUP1 PUSH1 0x1 DUP2 MSTORE PUSH1 0x20 ADD SWAP1 DUP2 MSTORE PUSH1 0x20 ADD PUSH0 KECCAK256 SWAP1 DUP2 PUSH2 0x63 SWAP2 SWAP1 PUSH2 0x34B JUMP JUMPDEST POP PUSH1 0x40 MLOAD DUP1 PUSH1 0x40 ADD PUSH1 0x40 MSTORE DUP1 PUSH1 0x8 DUP2 MSTORE PUSH1 0x20 ADD PUSH32 0x73756268616D6179000000000000000000000000000000000000000000000000 DUP2 MSTORE POP PUSH0 DUP1 PUSH1 0x2 DUP2 MSTORE PUSH1 0x20 ADD SWAP1 DUP2 MSTORE PUSH1 0x20 ADD PUSH0 KECCAK256 SWAP1 DUP2 PUSH2 0xB7 SWAP2 SWAP1 PUSH2 0x34B JUMP JUMPDEST POP PUSH1 0x40 MLOAD DUP1 PUSH1 0x40 ADD PUSH1 0x40 MSTORE DUP1 PUSH1 0xB DUP2 MSTORE PUSH1 0x20 ADD PUSH32 0x207375626872616E65656C000000000000000000000000000000000000000000 DUP2 MSTORE POP PUSH0 DUP1 PUSH1 0x3 DUP2 MSTORE PUSH1 0x20 ADD SWAP1 DUP2 MSTORE PUSH1 0x20 ADD PUSH0 KECCAK256 SWAP1 DUP2 PUSH2 0x10B SWAP2 SWAP1 PUSH2 0x34B JUMP JUMPDEST POP PUSH2 0x41A JUMP JUMPDEST PUSH0 DUP2 MLOAD SWAP1 POP SWAP2 SWAP1 POP JUMP JUMPDEST PUSH32 0x4E487B7100000000000000000000000000000000000000000000000000000000 PUSH0 MSTORE PUSH1 0x41 PUSH1 0x4 MSTORE PUSH1 0x24 PUSH0 REVERT JUMPDEST PUSH32 0x4E487B7100000000000000000000000000000000000000000000000000000000 PUSH0 MSTORE PUSH1 0x22 PUSH1 0x4 MSTORE PUSH1 0x24 PUSH0 REVERT JUMPDEST PUSH0 PUSH1 0x2 DUP3 DIV SWAP1 POP PUSH1 0x1 DUP3 AND DUP1 PUSH2 0x18C JUMPI PUSH1 0x7F DUP3 AND SWAP2 POP JUMPDEST PUSH1 0x20 DUP3 LT DUP2 SUB PUSH2 0x19F JUMPI PUSH2 0x19E PUSH2 0x148 JUMP JUMPDEST JUMPDEST POP SWAP2 SWAP1 POP JUMP JUMPDEST PUSH0 DUP2 SWAP1 POP DUP2 PUSH0 MSTORE PUSH1 0x20 PUSH0 KECCAK256 SWAP1 POP SWAP2 SWAP1 POP JUMP JUMPDEST PUSH0 PUSH1 0x20 PUSH1 0x1F DUP4 ADD DIV SWAP1 POP SWAP2 SWAP1 POP JUMP JUMPDEST PUSH0 DUP3 DUP3 SHL SWAP1 POP SWAP3 SWAP2 POP POP JUMP JUMPDEST PUSH0 PUSH1 0x8 DUP4 MUL PUSH2 0x201 PUSH32 0xFFFFFFFFFFFFFFFFFFFFFFFFFFFFFFFFFFFFFFFFFFFFFFFFFFFFFFFFFFFFFFFF DUP3 PUSH2 0x1C6 JUMP JUMPDEST PUSH2 0x20B DUP7 DUP4 PUSH2 0x1C6 JUMP JUMPDEST SWAP6 POP DUP1 NOT DUP5 AND SWAP4 POP DUP1 DUP7 AND DUP5 OR SWAP3 POP POP POP SWAP4 SWAP3 POP POP POP JUMP JUMPDEST PUSH0 DUP2 SWAP1 POP SWAP2 SWAP1 POP JUMP JUMPDEST PUSH0 DUP2 SWAP1 POP SWAP2 SWAP1 POP JUMP JUMPDEST PUSH0 PUSH2 0x24F PUSH2 0x24A PUSH2 0x245 DUP5 PUSH2 0x223 JUMP JUMPDEST PUSH2 0x22C JUMP JUMPDEST PUSH2 0x223 JUMP JUMPDEST SWAP1 POP SWAP2 SWAP1 POP JUMP JUMPDEST PUSH0 DUP2 SWAP1 POP SWAP2 SWAP1 POP JUMP JUMPDEST PUSH2 0x268 DUP4 PUSH2 0x235 JUMP JUMPDEST PUSH2 0x27C PUSH2 0x274 DUP3 PUSH2 0x256 JUMP JUMPDEST DUP5 DUP5 SLOAD PUSH2 0x1D2 JUMP JUMPDEST DUP3 SSTORE POP POP POP POP JUMP JUMPDEST PUSH0 SWAP1 JUMP JUMPDEST PUSH2 0x290 PUSH2 0x284 JUMP JUMPDEST PUSH2 0x29B DUP2 DUP5 DUP5 PUSH2 0x25F JUMP JUMPDEST POP POP POP JUMP JUMPDEST JUMPDEST DUP2 DUP2 LT ISZERO PUSH2 0x2BE JUMPI PUSH2 0x2B3 PUSH0 DUP3 PUSH2 0x288 JUMP JUMPDEST PUSH1 0x1 DUP2 ADD SWAP1 POP PUSH2 0x2A1 JUMP JUMPDEST POP POP JUMP JUMPDEST PUSH1 0x1F DUP3 GT ISZERO PUSH2 0x303 JUMPI PUSH2 0x2D4 DUP2 PUSH2 0x1A5 JUMP JUMPDEST PUSH2 0x2DD DUP5 PUSH2 0x1B7 JUMP JUMPDEST DUP2 ADD PUSH1 0x20 DUP6 LT ISZERO PUSH2 0x2EC JUMPI DUP2 SWAP1 POP JUMPDEST PUSH2 0x300 PUSH2 0x2F8 DUP6 PUSH2 0x1B7 JUMP JUMPDEST DUP4 ADD DUP3 PUSH2 0x2A0 JUMP JUMPDEST POP POP JUMPDEST POP POP POP JUMP JUMPDEST PUSH0 DUP3 DUP3 SHR SWAP1 POP SWAP3 SWAP2 POP POP JUMP JUMPDEST PUSH0 PUSH2 0x323 PUSH0 NOT DUP5 PUSH1 0x8 MUL PUSH2 0x308 JUMP JUMPDEST NOT DUP1 DUP4 AND SWAP2 POP POP SWAP3 SWAP2 POP POP JUMP JUMPDEST PUSH0 PUSH2 0x33B DUP4 DUP4 PUSH2 0x314 JUMP JUMPDEST SWAP2 POP DUP3 PUSH1 0x2 MUL DUP3 OR SWAP1 POP SWAP3 SWAP2 POP POP JUMP JUMPDEST PUSH2 0x354 DUP3 PUSH2 0x111 JUMP JUMPDEST PUSH8 0xFFFFFFFFFFFFFFFF DUP2 GT ISZERO PUSH2 0x36D JUMPI PUSH2 0x36C PUSH2 0x11B JUMP JUMPDEST JUMPDEST PUSH2 0x377 DUP3 SLOAD PUSH2 0x175 JUMP JUMPDEST PUSH2 0x382 DUP3 DUP3 DUP6 PUSH2 0x2C2 JUMP JUMPDEST PUSH0 PUSH1 0x20 SWAP1 POP PUSH1 0x1F DUP4 GT PUSH1 0x1 DUP2 EQ PUSH2 0x3B3 JUMPI PUSH0 DUP5 ISZERO PUSH2 0x3A1 JUMPI DUP3 DUP8 ADD MLOAD SWAP1 POP JUMPDEST PUSH2 0x3AB DUP6 DUP3 PUSH2 0x330 JUMP JUMPDEST DUP7 SSTORE POP PUSH2 0x412 JUMP JUMPDEST PUSH1 0x1F NOT DUP5 AND PUSH2 0x3C1 DUP7 PUSH2 0x1A5 JUMP JUMPDEST PUSH0 JUMPDEST DUP3 DUP2 LT ISZERO PUSH2 0x3E8 JUMPI DUP5 DUP10 ADD MLOAD DUP3 SSTORE PUSH1 0x1 DUP3 ADD SWAP2 POP PUSH1 0x20 DUP6 ADD SWAP5 POP PUSH1 0x20 DUP2 ADD SWAP1 POP PUSH2 0x3C3 JUMP JUMPDEST DUP7 DUP4 LT ISZERO PUSH2 0x405 JUMPI DUP5 DUP10 ADD MLOAD PUSH2 0x401 PUSH1 0x1F DUP10 AND DUP3 PUSH2 0x314 JUMP JUMPDEST DUP4 SSTORE POP JUMPDEST PUSH1 0x1 PUSH1 0x2 DUP9 MUL ADD DUP9 SSTORE POP POP POP JUMPDEST POP POP POP POP POP POP JUMP JUMPDEST PUSH2 0xBDC DUP1 PUSH2 0x427 PUSH0 CODECOPY PUSH0 RETURN INVALID PUSH1 0x80 PUSH1 0x40 MSTORE CALLVALUE DUP1 ISZERO PUSH2 0xF JUMPI PUSH0 DUP1 REVERT JUMPDEST POP PUSH1 0x4 CALLDATASIZE LT PUSH2 0x54 JUMPI PUSH0 CALLDATALOAD PUSH1 0xE0 SHR DUP1 PUSH3 0xAD800C EQ PUSH2 0x58 JUMPI DUP1 PUSH4 0x27D3553F EQ PUSH2 0x88 JUMPI DUP1 PUSH4 0x51F9BA95 EQ PUSH2 0xB9 JUMPI DUP1 PUSH4 0x68744046 EQ PUSH2 0xD5 JUMPI DUP1 PUSH4 0x8084D8E5 EQ PUSH2 0x106 JUMPI JUMPDEST PUSH0 DUP1 REVERT JUMPDEST PUSH2 0x72 PUSH1 0x4 DUP1 CALLDATASIZE SUB DUP2 ADD SWAP1 PUSH2 0x6D SWAP2 SWAP1 PUSH2 0x5A1 JUMP JUMPDEST PUSH2 0x122 JUMP JUMPDEST PUSH1 0x40 MLOAD PUSH2 0x7F SWAP2 SWAP1 PUSH2 0x63C JUMP JUMPDEST PUSH1 0x40 MLOAD DUP1 SWAP2 SUB SWAP1 RETURN JUMPDEST PUSH2 0xA2 PUSH1 0x4 DUP1 CALLDATASIZE SUB DUP2 ADD SWAP1 PUSH2 0x9D SWAP2 SWAP1 PUSH2 0x6B6 JUMP JUMPDEST PUSH2 0x1BC JUMP JUMPDEST PUSH1 0x40 MLOAD PUSH2 0xB0 SWAP3 SWAP2 SWAP1 PUSH2 0x6F4 JUMP JUMPDEST PUSH1 0x40 MLOAD DUP1 SWAP2 SUB SWAP1 RETURN JUMPDEST PUSH2 0xD3 PUSH1 0x4 DUP1 CALLDATASIZE SUB DUP2 ADD SWAP1 PUSH2 0xCE SWAP2 SWAP1 PUSH2 0x855 JUMP JUMPDEST PUSH2 0x2F3 JUMP JUMPDEST STOP JUMPDEST PUSH2 0xEF PUSH1 0x4 DUP1 CALLDATASIZE SUB DUP2 ADD SWAP1 PUSH2 0xEA SWAP2 SWAP1 PUSH2 0x5A1 JUMP JUMPDEST PUSH2 0x34B JUMP JUMPDEST PUSH1 0x40 MLOAD PUSH2 0xFD SWAP3 SWAP2 SWAP1 PUSH2 0x6F4 JUMP JUMPDEST PUSH1 0x40 MLOAD DUP1 SWAP2 SUB SWAP1 RETURN JUMPDEST PUSH2 0x120 PUSH1 0x4 DUP1 CALLDATASIZE SUB DUP2 ADD SWAP1 PUSH2 0x11B SWAP2 SWAP1 PUSH2 0x855 JUMP JUMPDEST PUSH2 0x477 JUMP JUMPDEST STOP JUMPDEST PUSH0 PUSH1 0x20 MSTORE DUP1 PUSH0 MSTORE PUSH1 0x40 PUSH0 KECCAK256 PUSH0 SWAP2 POP SWAP1 POP DUP1 SLOAD PUSH2 0x13D SWAP1 PUSH2 0x90A JUMP JUMPDEST DUP1 PUSH1 0x1F ADD PUSH1 0x20 DUP1 SWAP2 DIV MUL PUSH1 0x20 ADD PUSH1 0x40 MLOAD SWAP1 DUP2 ADD PUSH1 0x40 MSTORE DUP1 SWAP3 SWAP2 SWAP1 DUP2 DUP2 MSTORE PUSH1 0x20 ADD DUP3 DUP1 SLOAD PUSH2 0x169 SWAP1 PUSH2 0x90A JUMP JUMPDEST DUP1 ISZERO PUSH2 0x1B4 JUMPI DUP1 PUSH1 0x1F LT PUSH2 0x18B JUMPI PUSH2 0x100 DUP1 DUP4 SLOAD DIV MUL DUP4 MSTORE SWAP2 PUSH1 0x20 ADD SWAP2 PUSH2 0x1B4 JUMP JUMPDEST DUP3 ADD SWAP2 SWAP1 PUSH0 MSTORE PUSH1 0x20 PUSH0 KECCAK256 SWAP1 JUMPDEST DUP2 SLOAD DUP2 MSTORE SWAP1 PUSH1 0x1 ADD SWAP1 PUSH1 0x20 ADD DUP1 DUP4 GT PUSH2 0x197 JUMPI DUP3 SWAP1 SUB PUSH1 0x1F AND DUP3 ADD SWAP2 JUMPDEST POP POP POP POP POP DUP2 JUMP JUMPDEST PUSH1 0x2 PUSH1 0x20 MSTORE DUP2 PUSH0 MSTORE PUSH1 0x40 PUSH0 KECCAK256 PUSH1 0x20 MSTORE DUP1 PUSH0 MSTORE PUSH1 0x40 PUSH0 KECCAK256 PUSH0 SWAP2 POP SWAP2 POP POP DUP1 PUSH0 ADD DUP1 SLOAD PUSH2 0x1E6 SWAP1 PUSH2 0x90A JUMP JUMPDEST DUP1 PUSH1 0x1F ADD PUSH1 0x20 DUP1 SWAP2 DIV MUL PUSH1 0x20 ADD PUSH1 0x40 MLOAD SWAP1 DUP2 ADD PUSH1 0x40 MSTORE DUP1 SWAP3 SWAP2 SWAP1 DUP2 DUP2 MSTORE PUSH1 0x20 ADD DUP3 DUP1 SLOAD PUSH2 0x212 SWAP1 PUSH2 0x90A JUMP JUMPDEST DUP1 ISZERO PUSH2 0x25D JUMPI DUP1 PUSH1 0x1F LT PUSH2 0x234 JUMPI PUSH2 0x100 DUP1 DUP4 SLOAD DIV MUL DUP4 MSTORE SWAP2 PUSH1 0x20 ADD SWAP2 PUSH2 0x25D JUMP JUMPDEST DUP3 ADD SWAP2 SWAP1 PUSH0 MSTORE PUSH1 0x20 PUSH0 KECCAK256 SWAP1 JUMPDEST DUP2 SLOAD DUP2 MSTORE SWAP1 PUSH1 0x1 ADD SWAP1 PUSH1 0x20 ADD DUP1 DUP4 GT PUSH2 0x240 JUMPI DUP3 SWAP1 SUB PUSH1 0x1F AND DUP3 ADD SWAP2 JUMPDEST POP POP POP POP POP SWAP1 DUP1 PUSH1 0x1 ADD DUP1 SLOAD PUSH2 0x272 SWAP1 PUSH2 0x90A JUMP JUMPDEST DUP1 PUSH1 0x1F ADD PUSH1 0x20 DUP1 SWAP2 DIV MUL PUSH1 0x20 ADD PUSH1 0x40 MLOAD SWAP1 DUP2 ADD PUSH1 0x40 MSTORE DUP1 SWAP3 SWAP2 SWAP1 DUP2 DUP2 MSTORE PUSH1 0x20 ADD DUP3 DUP1 SLOAD PUSH2 0x29E SWAP1 PUSH2 0x90A JUMP JUMPDEST DUP1 ISZERO PUSH2 0x2E9 JUMPI DUP1 PUSH1 0x1F LT PUSH2 0x2C0 JUMPI PUSH2 0x100 DUP1 DUP4 SLOAD DIV MUL DUP4 MSTORE SWAP2 PUSH1 0x20 ADD SWAP2 PUSH2 0x2E9 JUMP JUMPDEST DUP3 ADD SWAP2 SWAP1 PUSH0 MSTORE PUSH1 0x20 PUSH0 KECCAK256 SWAP1 JUMPDEST DUP2 SLOAD DUP2 MSTORE SWAP1 PUSH1 0x1 ADD SWAP1 PUSH1 0x20 ADD DUP1 DUP4 GT PUSH2 0x2CC JUMPI DUP3 SWAP1 SUB PUSH1 0x1F AND DUP3 ADD SWAP2 JUMPDEST POP POP POP POP POP SWAP1 POP DUP3 JUMP JUMPDEST PUSH1 0x40 MLOAD DUP1 PUSH1 0x40 ADD PUSH1 0x40 MSTORE DUP1 DUP4 DUP2 MSTORE PUSH1 0x20 ADD DUP3 DUP2 MSTORE POP PUSH1 0x1 PUSH0 DUP6 DUP2 MSTORE PUSH1 0x20 ADD SWAP1 DUP2 MSTORE PUSH1 0x20 ADD PUSH0 KECCAK256 PUSH0 DUP3 ADD MLOAD DUP2 PUSH0 ADD SWAP1 DUP2 PUSH2 0x32C SWAP2 SWAP1 PUSH2 0xAD7 JUMP JUMPDEST POP PUSH1 0x20 DUP3 ADD MLOAD DUP2 PUSH1 0x1 ADD SWAP1 DUP2 PUSH2 0x342 SWAP2 SWAP1 PUSH2 0xAD7 JUMP JUMPDEST POP SWAP1 POP POP POP POP POP JUMP JUMPDEST PUSH1 0x1 PUSH1 0x20 MSTORE DUP1 PUSH0 MSTORE PUSH1 0x40 PUSH0 KECCAK256 PUSH0 SWAP2 POP SWAP1 POP DUP1 PUSH0 ADD DUP1 SLOAD PUSH2 0x36A SWAP1 PUSH2 0x90A JUMP JUMPDEST DUP1 PUSH1 0x1F ADD PUSH1 0x20 DUP1 SWAP2 DIV MUL PUSH1 0x20 ADD PUSH1 0x40 MLOAD SWAP1 DUP2 ADD PUSH1 0x40 MSTORE DUP1 SWAP3 SWAP2 SWAP1 DUP2 DUP2 MSTORE PUSH1 0x20 ADD DUP3 DUP1 SLOAD PUSH2 0x396 SWAP1 PUSH2 0x90A JUMP JUMPDEST DUP1 ISZERO PUSH2 0x3E1 JUMPI DUP1 PUSH1 0x1F LT PUSH2 0x3B8 JUMPI PUSH2 0x100 DUP1 DUP4 SLOAD DIV MUL DUP4 MSTORE SWAP2 PUSH1 0x20 ADD SWAP2 PUSH2 0x3E1 JUMP JUMPDEST DUP3 ADD SWAP2 SWAP1 PUSH0 MSTORE PUSH1 0x20 PUSH0 KECCAK256 SWAP1 JUMPDEST DUP2 SLOAD DUP2 MSTORE SWAP1 PUSH1 0x1 ADD SWAP1 PUSH1 0x20 ADD DUP1 DUP4 GT PUSH2 0x3C4 JUMPI DUP3 SWAP1 SUB PUSH1 0x1F AND DUP3 ADD SWAP2 JUMPDEST POP POP POP POP POP SWAP1 DUP1 PUSH1 0x1 ADD DUP1 SLOAD PUSH2 0x3F6 SWAP1 PUSH2 0x90A JUMP JUMPDEST DUP1 PUSH1 0x1F ADD PUSH1 0x20 DUP1 SWAP2 DIV MUL PUSH1 0x20 ADD PUSH1 0x40 MLOAD SWAP1 DUP2 ADD PUSH1 0x40 MSTORE DUP1 SWAP3 SWAP2 SWAP1 DUP2 DUP2 MSTORE PUSH1 0x20 ADD DUP3 DUP1 SLOAD PUSH2 0x422 SWAP1 PUSH2 0x90A JUMP JUMPDEST DUP1 ISZERO PUSH2 0x46D JUMPI DUP1 PUSH1 0x1F LT PUSH2 0x444 JUMPI PUSH2 0x100 DUP1 DUP4 SLOAD DIV MUL DUP4 MSTORE SWAP2 PUSH1 0x20 ADD SWAP2 PUSH2 0x46D JUMP JUMPDEST DUP3 ADD SWAP2 SWAP1 PUSH0 MSTORE PUSH1 0x20 PUSH0 KECCAK256 SWAP1 JUMPDEST DUP2 SLOAD DUP2 MSTORE SWAP1 PUSH1 0x1 ADD SWAP1 PUSH1 0x20 ADD DUP1 DUP4 GT PUSH2 0x450 JUMPI DUP3 SWAP1 SUB PUSH1 0x1F AND DUP3 ADD SWAP2 JUMPDEST POP POP POP POP POP SWAP1 POP DUP3 JUMP JUMPDEST PUSH1 0x40 MLOAD DUP1 PUSH1 0x40 ADD PUSH1 0x40 MSTORE DUP1 DUP4 DUP2 MSTORE PUSH1 0x20 ADD DUP3 DUP2 MSTORE POP PUSH1 0x1 PUSH0 DUP6 DUP2 MSTORE PUSH1 0x20 ADD SWAP1 DUP2 MSTORE PUSH1 0x20 ADD PUSH0 KECCAK256 PUSH0 DUP3 ADD MLOAD DUP2 PUSH0 ADD SWAP1 DUP2 PUSH2 0x4B0 SWAP2 SWAP1 PUSH2 0xAD7 JUMP JUMPDEST POP PUSH1 0x20 DUP3 ADD MLOAD DUP2 PUSH1 0x1 ADD SWAP1 DUP2 PUSH2 0x4C6 SWAP2 SWAP1 PUSH2 0xAD7 JUMP JUMPDEST POP SWAP1 POP POP PUSH1 0x40 MLOAD DUP1 PUSH1 0x40 ADD PUSH1 0x40 MSTORE DUP1 DUP4 DUP2 MSTORE PUSH1 0x20 ADD DUP3 DUP2 MSTORE POP PUSH1 0x2 PUSH0 CALLER PUSH20 0xFFFFFFFFFFFFFFFFFFFFFFFFFFFFFFFFFFFFFFFF AND PUSH20 0xFFFFFFFFFFFFFFFFFFFFFFFFFFFFFFFFFFFFFFFF AND DUP2 MSTORE PUSH1 0x20 ADD SWAP1 DUP2 MSTORE PUSH1 0x20 ADD PUSH0 KECCAK256 PUSH0 DUP6 DUP2 MSTORE PUSH1 0x20 ADD SWAP1 DUP2 MSTORE PUSH1 0x20 ADD PUSH0 KECCAK256 PUSH0 DUP3 ADD MLOAD DUP2 PUSH0 ADD SWAP1 DUP2 PUSH2 0x53E SWAP2 SWAP1 PUSH2 0xAD7 JUMP JUMPDEST POP PUSH1 0x20 DUP3 ADD MLOAD DUP2 PUSH1 0x1 ADD SWAP1 DUP2 PUSH2 0x554 SWAP2 SWAP1 PUSH2 0xAD7 JUMP JUMPDEST POP SWAP1 POP POP POP POP POP JUMP JUMPDEST PUSH0 PUSH1 0x40 MLOAD SWAP1 POP SWAP1 JUMP JUMPDEST PUSH0 DUP1 REVERT JUMPDEST PUSH0 DUP1 REVERT JUMPDEST PUSH0 DUP2 SWAP1 POP SWAP2 SWAP1 POP JUMP JUMPDEST PUSH2 0x580 DUP2 PUSH2 0x56E JUMP JUMPDEST DUP2 EQ PUSH2 0x58A JUMPI PUSH0 DUP1 REVERT JUMPDEST POP JUMP JUMPDEST PUSH0 DUP2 CALLDATALOAD SWAP1 POP PUSH2 0x59B DUP2 PUSH2 0x577 JUMP JUMPDEST SWAP3 SWAP2 POP POP JUMP JUMPDEST PUSH0 PUSH1 0x20 DUP3 DUP5 SUB SLT ISZERO PUSH2 0x5B6 JUMPI PUSH2 0x5B5 PUSH2 0x566 JUMP JUMPDEST JUMPDEST PUSH0 PUSH2 0x5C3 DUP5 DUP3 DUP6 ADD PUSH2 0x58D JUMP JUMPDEST SWAP2 POP POP SWAP3 SWAP2 POP POP JUMP JUMPDEST PUSH0 DUP2 MLOAD SWAP1 POP SWAP2 SWAP1 POP JUMP JUMPDEST PUSH0 DUP3 DUP3 MSTORE PUSH1 0x20 DUP3 ADD SWAP1 POP SWAP3 SWAP2 POP POP JUMP JUMPDEST DUP3 DUP2 DUP4 MCOPY PUSH0 DUP4 DUP4 ADD MSTORE POP POP POP JUMP JUMPDEST PUSH0 PUSH1 0x1F NOT PUSH1 0x1F DUP4 ADD AND SWAP1 POP SWAP2 SWAP1 POP JUMP JUMPDEST PUSH0 PUSH2 0x60E DUP3 PUSH2 0x5CC JUMP JUMPDEST PUSH2 0x618 DUP2 DUP6 PUSH2 0x5D6 JUMP JUMPDEST SWAP4 POP PUSH2 0x628 DUP2 DUP6 PUSH1 0x20 DUP7 ADD PUSH2 0x5E6 JUMP JUMPDEST PUSH2 0x631 DUP2 PUSH2 0x5F4 JUMP JUMPDEST DUP5 ADD SWAP2 POP POP SWAP3 SWAP2 POP POP JUMP JUMPDEST PUSH0 PUSH1 0x20 DUP3 ADD SWAP1 POP DUP2 DUP2 SUB PUSH0 DUP4 ADD MSTORE PUSH2 0x654 DUP2 DUP5 PUSH2 0x604 JUMP JUMPDEST SWAP1 POP SWAP3 SWAP2 POP POP JUMP JUMPDEST PUSH0 PUSH20 0xFFFFFFFFFFFFFFFFFFFFFFFFFFFFFFFFFFFFFFFF DUP3 AND SWAP1 POP SWAP2 SWAP1 POP JUMP JUMPDEST PUSH0 PUSH2 0x685 DUP3 PUSH2 0x65C JUMP JUMPDEST SWAP1 POP SWAP2 SWAP1 POP JUMP JUMPDEST PUSH2 0x695 DUP2 PUSH2 0x67B JUMP JUMPDEST DUP2 EQ PUSH2 0x69F JUMPI PUSH0 DUP1 REVERT JUMPDEST POP JUMP JUMPDEST PUSH0 DUP2 CALLDATALOAD SWAP1 POP PUSH2 0x6B0 DUP2 PUSH2 0x68C JUMP JUMPDEST SWAP3 SWAP2 POP POP JUMP JUMPDEST PUSH0 DUP1 PUSH1 0x40 DUP4 DUP6 SUB SLT ISZERO PUSH2 0x6CC JUMPI PUSH2 0x6CB PUSH2 0x566 JUMP JUMPDEST JUMPDEST PUSH0 PUSH2 0x6D9 DUP6 DUP3 DUP7 ADD PUSH2 0x6A2 JUMP JUMPDEST SWAP3 POP POP PUSH1 0x20 PUSH2 0x6EA DUP6 DUP3 DUP7 ADD PUSH2 0x58D JUMP JUMPDEST SWAP2 POP POP SWAP3 POP SWAP3 SWAP1 POP JUMP JUMPDEST PUSH0 PUSH1 0x40 DUP3 ADD SWAP1 POP DUP2 DUP2 SUB PUSH0 DUP4 ADD MSTORE PUSH2 0x70C DUP2 DUP6 PUSH2 0x604 JUMP JUMPDEST SWAP1 POP DUP2 DUP2 SUB PUSH1 0x20 DUP4 ADD MSTORE PUSH2 0x720 DUP2 DUP5 PUSH2 0x604 JUMP JUMPDEST SWAP1 POP SWAP4 SWAP3 POP POP POP JUMP JUMPDEST PUSH0 DUP1 REVERT JUMPDEST PUSH0 DUP1 REVERT JUMPDEST PUSH32 0x4E487B7100000000000000000000000000000000000000000000000000000000 PUSH0 MSTORE PUSH1 0x41 PUSH1 0x4 MSTORE PUSH1 0x24 PUSH0 REVERT JUMPDEST PUSH2 0x767 DUP3 PUSH2 0x5F4 JUMP JUMPDEST DUP2 ADD DUP2 DUP2 LT PUSH8 0xFFFFFFFFFFFFFFFF DUP3 GT OR ISZERO PUSH2 0x786 JUMPI PUSH2 0x785 PUSH2 0x731 JUMP JUMPDEST JUMPDEST DUP1 PUSH1 0x40 MSTORE POP POP POP JUMP JUMPDEST PUSH0 PUSH2 0x798 PUSH2 0x55D JUMP JUMPDEST SWAP1 POP PUSH2 0x7A4 DUP3 DUP3 PUSH2 0x75E JUMP JUMPDEST SWAP2 SWAP1 POP JUMP JUMPDEST PUSH0 PUSH8 0xFFFFFFFFFFFFFFFF DUP3 GT ISZERO PUSH2 0x7C3 JUMPI PUSH2 0x7C2 PUSH2 0x731 JUMP JUMPDEST JUMPDEST PUSH2 0x7CC DUP3 PUSH2 0x5F4 JUMP JUMPDEST SWAP1 POP PUSH1 0x20 DUP2 ADD SWAP1 POP SWAP2 SWAP1 POP JUMP JUMPDEST DUP3 DUP2 DUP4 CALLDATACOPY PUSH0 DUP4 DUP4 ADD MSTORE POP POP POP JUMP JUMPDEST PUSH0 PUSH2 0x7F9 PUSH2 0x7F4 DUP5 PUSH2 0x7A9 JUMP JUMPDEST PUSH2 0x78F JUMP JUMPDEST SWAP1 POP DUP3 DUP2 MSTORE PUSH1 0x20 DUP2 ADD DUP5 DUP5 DUP5 ADD GT ISZERO PUSH2 0x815 JUMPI PUSH2 0x814 PUSH2 0x72D JUMP JUMPDEST JUMPDEST PUSH2 0x820 DUP5 DUP3 DUP6 PUSH2 0x7D9 JUMP JUMPDEST POP SWAP4 SWAP3 POP POP POP JUMP JUMPDEST PUSH0 DUP3 PUSH1 0x1F DUP4 ADD SLT PUSH2 0x83C JUMPI PUSH2 0x83B PUSH2 0x729 JUMP JUMPDEST JUMPDEST DUP2 CALLDATALOAD PUSH2 0x84C DUP5 DUP3 PUSH1 0x20 DUP7 ADD PUSH2 0x7E7 JUMP JUMPDEST SWAP2 POP POP SWAP3 SWAP2 POP POP JUMP JUMPDEST PUSH0 DUP1 PUSH0 PUSH1 0x60 DUP5 DUP7 SUB SLT ISZERO PUSH2 0x86C JUMPI PUSH2 0x86B PUSH2 0x566 JUMP JUMPDEST JUMPDEST PUSH0 PUSH2 0x879 DUP7 DUP3 DUP8 ADD PUSH2 0x58D JUMP JUMPDEST SWAP4 POP POP PUSH1 0x20 DUP5 ADD CALLDATALOAD PUSH8 0xFFFFFFFFFFFFFFFF DUP2 GT ISZERO PUSH2 0x89A JUMPI PUSH2 0x899 PUSH2 0x56A JUMP JUMPDEST JUMPDEST PUSH2 0x8A6 DUP7 DUP3 DUP8 ADD PUSH2 0x828 JUMP JUMPDEST SWAP3 POP POP PUSH1 0x40 DUP5 ADD CALLDATALOAD PUSH8 0xFFFFFFFFFFFFFFFF DUP2 GT ISZERO PUSH2 0x8C7 JUMPI PUSH2 0x8C6 PUSH2 0x56A JUMP JUMPDEST JUMPDEST PUSH2 0x8D3 DUP7 DUP3 DUP8 ADD PUSH2 0x828 JUMP JUMPDEST SWAP2 POP POP SWAP3 POP SWAP3 POP SWAP3 JUMP JUMPDEST PUSH32 0x4E487B7100000000000000000000000000000000000000000000000000000000 PUSH0 MSTORE PUSH1 0x22 PUSH1 0x4 MSTORE PUSH1 0x24 PUSH0 REVERT JUMPDEST PUSH0 PUSH1 0x2 DUP3 DIV SWAP1 POP PUSH1 0x1 DUP3 AND DUP1 PUSH2 0x921 JUMPI PUSH1 0x7F DUP3 AND SWAP2 POP JUMPDEST PUSH1 0x20 DUP3 LT DUP2 SUB PUSH2 0x934 JUMPI PUSH2 0x933 PUSH2 0x8DD JUMP JUMPDEST JUMPDEST POP SWAP2 SWAP1 POP JUMP JUMPDEST PUSH0 DUP2 SWAP1 POP DUP2 PUSH0 MSTORE PUSH1 0x20 PUSH0 KECCAK256 SWAP1 POP SWAP2 SWAP1 POP JUMP JUMPDEST PUSH0 PUSH1 0x20 PUSH1 0x1F DUP4 ADD DIV SWAP1 POP SWAP2 SWAP1 POP JUMP JUMPDEST PUSH0 DUP3 DUP3 SHL SWAP1 POP SWAP3 SWAP2 POP POP JUMP JUMPDEST PUSH0 PUSH1 0x8 DUP4 MUL PUSH2 0x996 PUSH32 0xFFFFFFFFFFFFFFFFFFFFFFFFFFFFFFFFFFFFFFFFFFFFFFFFFFFFFFFFFFFFFFFF DUP3 PUSH2 0x95B JUMP JUMPDEST PUSH2 0x9A0 DUP7 DUP4 PUSH2 0x95B JUMP JUMPDEST SWAP6 POP DUP1 NOT DUP5 AND SWAP4 POP DUP1 DUP7 AND DUP5 OR SWAP3 POP POP POP SWAP4 SWAP3 POP POP POP JUMP JUMPDEST PUSH0 DUP2 SWAP1 POP SWAP2 SWAP1 POP JUMP JUMPDEST PUSH0 PUSH2 0x9DB PUSH2 0x9D6 PUSH2 0x9D1 DUP5 PUSH2 0x56E JUMP JUMPDEST PUSH2 0x9B8 JUMP JUMPDEST PUSH2 0x56E JUMP JUMPDEST SWAP1 POP SWAP2 SWAP1 POP JUMP JUMPDEST PUSH0 DUP2 SWAP1 POP SWAP2 SWAP1 POP JUMP JUMPDEST PUSH2 0x9F4 DUP4 PUSH2 0x9C1 JUMP JUMPDEST PUSH2 0xA08 PUSH2 0xA00 DUP3 PUSH2 0x9E2 JUMP JUMPDEST DUP5 DUP5 SLOAD PUSH2 0x967 JUMP JUMPDEST DUP3 SSTORE POP POP POP POP JUMP JUMPDEST PUSH0 SWAP1 JUMP JUMPDEST PUSH2 0xA1C PUSH2 0xA10 JUMP JUMPDEST PUSH2 0xA27 DUP2 DUP5 DUP5 PUSH2 0x9EB JUMP JUMPDEST POP POP POP JUMP JUMPDEST JUMPDEST DUP2 DUP2 LT ISZERO PUSH2 0xA4A JUMPI PUSH2 0xA3F PUSH0 DUP3 PUSH2 0xA14 JUMP JUMPDEST PUSH1 0x1 DUP2 ADD SWAP1 POP PUSH2 0xA2D JUMP JUMPDEST POP POP JUMP JUMPDEST PUSH1 0x1F DUP3 GT ISZERO PUSH2 0xA8F JUMPI PUSH2 0xA60 DUP2 PUSH2 0x93A JUMP JUMPDEST PUSH2 0xA69 DUP5 PUSH2 0x94C JUMP JUMPDEST DUP2 ADD PUSH1 0x20 DUP6 LT ISZERO PUSH2 0xA78 JUMPI DUP2 SWAP1 POP JUMPDEST PUSH2 0xA8C PUSH2 0xA84 DUP6 PUSH2 0x94C JUMP JUMPDEST DUP4 ADD DUP3 PUSH2 0xA2C JUMP JUMPDEST POP POP JUMPDEST POP POP POP JUMP JUMPDEST PUSH0 DUP3 DUP3 SHR SWAP1 POP SWAP3 SWAP2 POP POP JUMP JUMPDEST PUSH0 PUSH2 0xAAF PUSH0 NOT DUP5 PUSH1 0x8 MUL PUSH2 0xA94 JUMP JUMPDEST NOT DUP1 DUP4 AND SWAP2 POP POP SWAP3 SWAP2 POP POP JUMP JUMPDEST PUSH0 PUSH2 0xAC7 DUP4 DUP4 PUSH2 0xAA0 JUMP JUMPDEST SWAP2 POP DUP3 PUSH1 0x2 MUL DUP3 OR SWAP1 POP SWAP3 SWAP2 POP POP JUMP JUMPDEST PUSH2 0xAE0 DUP3 PUSH2 0x5CC JUMP JUMPDEST PUSH8 0xFFFFFFFFFFFFFFFF DUP2 GT ISZERO PUSH2 0xAF9 JUMPI PUSH2 0xAF8 PUSH2 0x731 JUMP JUMPDEST JUMPDEST PUSH2 0xB03 DUP3 SLOAD PUSH2 0x90A JUMP JUMPDEST PUSH2 0xB0E DUP3 DUP3 DUP6 PUSH2 0xA4E JUMP JUMPDEST PUSH0 PUSH1 0x20 SWAP1 POP PUSH1 0x1F DUP4 GT PUSH1 0x1 DUP2 EQ PUSH2 0xB3F JUMPI PUSH0 DUP5 ISZERO PUSH2 0xB2D JUMPI DUP3 DUP8 ADD MLOAD SWAP1 POP JUMPDEST PUSH2 0xB37 DUP6 DUP3 PUSH2 0xABC JUMP JUMPDEST DUP7 SSTORE POP PUSH2 0xB9E JUMP JUMPDEST PUSH1 0x1F NOT DUP5 AND PUSH2 0xB4D DUP7 PUSH2 0x93A JUMP JUMPDEST PUSH0 JUMPDEST DUP3 DUP2 LT ISZERO PUSH2 0xB74 JUMPI DUP5 DUP10 ADD MLOAD DUP3 SSTORE PUSH1 0x1 DUP3 ADD SWAP2 POP PUSH1 0x20 DUP6 ADD SWAP5 POP PUSH1 0x20 DUP2 ADD SWAP1 POP PUSH2 0xB4F JUMP JUMPDEST DUP7 DUP4 LT ISZERO PUSH2 0xB91 JUMPI DUP5 DUP10 ADD MLOAD PUSH2 0xB8D PUSH1 0x1F DUP10 AND DUP3 PUSH2 0xAA0 JUMP JUMPDEST DUP4 SSTORE POP JUMPDEST PUSH1 0x1 PUSH1 0x2 DUP9 MUL ADD DUP9 SSTORE POP POP POP JUMPDEST POP POP POP POP POP POP JUMP INVALID LOG2 PUSH5 0x6970667358 0x22 SLT KECCAK256 PUSH11 0x495EB0335C8AF892E5817 PUSH28 0xE517546BDA76940FF7D5E04F6CDED54D592BB164736F6C634300081A STOP CALLER "
				},
				"gasEstimates": {
					"creation": {
						"codeDepositCost": "607200",
						"executionCost": "infinite",
						"totalCost": "infinite"
					},
					"external": {
						"addMybook(uint256,string,string)": "infinite",
						"addbook(uint256,string,string)": "infinite",
						"books(uint256)": "infinite",
						"myBooks(address,uint256)": "infinite",
						"name(uint256)": "infinite"
					}
				},
				"methodIdentifiers": {
					"addMybook(uint256,string,string)": "8084d8e5",
					"addbook(uint256,string,string)": "51f9ba95",
					"books(uint256)": "68744046",
					"myBooks(address,uint256)": "27d3553f",
					"name(uint256)": "00ad800c"
				}
			},
			"storageLayout": {
				"storage": [
					{
						"astId": 5,
						"contract": "contracts/mapping.sol:Mycontarct",
						"label": "name",
						"offset": 0,
						"slot": "0",
						"type": "t_mapping(t_uint256,t_string_storage)"
					},
					{
						"astId": 10,
						"contract": "contracts/mapping.sol:Mycontarct",
						"label": "books",
						"offset": 0,
						"slot": "1",
						"type": "t_mapping(t_uint256,t_struct(book)22_storage)"
					},
					{
						"astId": 17,
						"contract": "contracts/mapping.sol:Mycontarct",
						"label": "myBooks",
						"offset": 0,
						"slot": "2",
						"type": "t_mapping(t_address,t_mapping(t_uint256,t_struct(book)22_storage))"
					}
				],
				"types": {
					"t_address": {
						"encoding": "inplace",
						"label": "address",
						"numberOfBytes": "20"
					},
					"t_mapping(t_address,t_mapping(t_uint256,t_struct(book)22_storage))": {
						"encoding": "mapping",
						"key": "t_address",
						"label": "mapping(address => mapping(uint256 => struct Mycontarct.book))",
						"numberOfBytes": "32",
						"value": "t_mapping(t_uint256,t_struct(book)22_storage)"
					},
					"t_mapping(t_uint256,t_string_storage)": {
						"encoding": "mapping",
						"key": "t_uint256",
						"label": "mapping(uint256 => string)",
						"numberOfBytes": "32",
						"value": "t_string_storage"
					},
					"t_mapping(t_uint256,t_struct(book)22_storage)": {
						"encoding": "mapping",
						"key": "t_uint256",
						"label": "mapping(uint256 => struct Mycontarct.book)",
						"numberOfBytes": "32",
						"value": "t_struct(book)22_storage"
					},
					"t_string_storage": {
						"encoding": "bytes",
						"label": "string",
						"numberOfBytes": "32"
					},
					"t_struct(book)22_storage": {
						"encoding": "inplace",
						"label": "struct Mycontarct.book",
						"members": [
							{
								"astId": 19,
								"contract": "contracts/mapping.sol:Mycontarct",
								"label": "title",
								"offset": 0,
								"slot": "0",
								"type": "t_string_storage"
							},
							{
								"astId": 21,
								"contract": "contracts/mapping.sol:Mycontarct",
								"label": "author",
								"offset": 0,
								"slot": "1",
								"type": "t_string_storage"
							}
						],
						"numberOfBytes": "64"
					},
					"t_uint256": {
						"encoding": "inplace",
						"label": "uint256",
						"numberOfBytes": "32"
					}
				}
			},
			"userdoc": {
				"kind": "user",
				"methods": {},
				"version": 1
			}
		}
	}
}